{"contracts/AntigravityBallot.sol":{"AntigravityBallot":{"abi":[{"inputs":[{"internalType":"uint256[2]","name":"_electionPublicKey","type":"uint256[2]"}],"stateMutability":"nonpayable","type":"constructor"},{"anonymous":false,"inputs":[],"name":"ElectionClosed","type":"event"},{"anonymous":false,"inputs":[{"indexed":false,"internalType":"uint256","name":"snapshotRoot","type":"uint256"},{"indexed":false,"internalType":"uint256","name":"blockNumber","type":"uint256"}],"name":"ElectionStarted","type":"event"},{"anonymous":false,"inputs":[{"indexed":false,"internalType":"uint256","name":"nullifierHash","type":"uint256"},{"indexed":false,"internalType":"uint256","name":"c1_x","type":"uint256"},{"indexed":false,"internalType":"uint256","name":"c1_y","type":"uint256"},{"indexed":false,"internalType":"uint256","name":"c2_x","type":"uint256"},{"indexed":false,"internalType":"uint256","name":"c2_y","type":"uint256"}],"name":"VoteCast","type":"event"},{"anonymous":false,"inputs":[{"indexed":false,"internalType":"uint256","name":"commitment","type":"uint256"},{"indexed":false,"internalType":"uint256","name":"newRoot","type":"uint256"}],"name":"VoterRegistered","type":"event"},{"inputs":[{"internalType":"uint256","name":"commitment","type":"uint256"},{"internalType":"uint256","name":"computedRoot","type":"uint256"}],"name":"addVoter","outputs":[],"stateMutability":"nonpayable","type":"function"},{"inputs":[],"name":"closeElection","outputs":[],"stateMutability":"nonpayable","type":"function"},{"inputs":[{"internalType":"uint256","name":"","type":"uint256"}],"name":"electionPublicKey","outputs":[{"internalType":"uint256","name":"","type":"uint256"}],"stateMutability":"view","type":"function"},{"inputs":[],"name":"electionRootSnapshot","outputs":[{"internalType":"uint256","name":"","type":"uint256"}],"stateMutability":"view","type":"function"},{"inputs":[{"internalType":"uint256","name":"","type":"uint256"}],"name":"encryptedVotes","outputs":[{"internalType":"uint256","name":"c1_x","type":"uint256"},{"internalType":"uint256","name":"c1_y","type":"uint256"},{"internalType":"uint256","name":"c2_x","type":"uint256"},{"internalType":"uint256","name":"c2_y","type":"uint256"}],"stateMutability":"view","type":"function"},{"inputs":[],"name":"getEncryptedVotesCount","outputs":[{"internalType":"uint256","name":"","type":"uint256"}],"stateMutability":"view","type":"function"},{"inputs":[{"internalType":"uint256","name":"","type":"uint256"}],"name":"nullifiers","outputs":[{"internalType":"bool","name":"","type":"bool"}],"stateMutability":"view","type":"function"},{"inputs":[],"name":"owner","outputs":[{"internalType":"address","name":"","type":"address"}],"stateMutability":"view","type":"function"},{"inputs":[],"name":"startVoting","outputs":[],"stateMutability":"nonpayable","type":"function"},{"inputs":[],"name":"state","outputs":[{"internalType":"enum AntigravityBallot.ElectionState","name":"","type":"uint8"}],"stateMutability":"view","type":"function"},{"inputs":[],"name":"verifier","outputs":[{"internalType":"contract Groth16Verifier","name":"","type":"address"}],"stateMutability":"view","type":"function"},{"inputs":[{"internalType":"uint256[2]","name":"a","type":"uint256[2]"},{"internalType":"uint256[2][2]","name":"b","type":"uint256[2][2]"},{"internalType":"uint256[2]","name":"c","type":"uint256[2]"},{"internalType":"uint256","name":"nullifierHash","type":"uint256"},{"internalType":"uint256[2]","name":"c1","type":"uint256[2]"},{"internalType":"uint256[2]","name":"c2","type":"uint256[2]"}],"name":"verifyAndCast","outputs":[],"stateMutability":"nonpayable","type":"function"}],"evm":{"bytecode":{"linkReferences":{},"object":"608060405234801561001057600080fd5b5060405161237e38038061237e83398181016040528101906100329190610314565b33600760006101000a81548173ffffffffffffffffffffffffffffffffffffffff021916908373ffffffffffffffffffffffffffffffffffffffff16021790555060008060006101000a81548160ff0219169083600281111561009857610097610341565b5b02179055508060029060026100ae92919061011e565b506040516100bb9061015e565b604051809103906000f0801580156100d7573d6000803e3d6000fd5b50600660006101000a81548173ffffffffffffffffffffffffffffffffffffffff021916908373ffffffffffffffffffffffffffffffffffffffff16021790555050610370565b826002810192821561014d579160200282015b8281111561014c578251825591602001919060010190610131565b5b50905061015a919061016b565b5090565b6108ab80611ad383390190565b5b8082111561018457600081600090555060010161016c565b5090565b6000604051905090565b600080fd5b600080fd5b6000601f19601f8301169050919050565b7f4e487b7100000000000000000000000000000000000000000000000000000000600052604160045260246000fd5b6101e58261019c565b810181811067ffffffffffffffff82111715610204576102036101ad565b5b80604052505050565b6000610217610188565b905061022382826101dc565b919050565b600067ffffffffffffffff821115610243576102426101ad565b5b602082029050919050565b600080fd5b6000819050919050565b61026681610253565b811461027157600080fd5b50565b6000815190506102838161025d565b92915050565b600061029c61029784610228565b61020d565b905080602084028301858111156102b6576102b561024e565b5b835b818110156102df57806102cb8882610274565b8452602084019350506020810190506102b8565b5050509392505050565b600082601f8301126102fe576102fd610197565b5b600261030b848285610289565b91505092915050565b60006040828403121561032a57610329610192565b5b6000610338848285016102e9565b91505092915050565b7f4e487b7100000000000000000000000000000000000000000000000000000000600052602160045260246000fd5b6117548061037f6000396000f3fe608060405234801561001057600080fd5b50600436106100b45760003560e01c80638da5cb5b116100715780638da5cb5b146101555780639b3e18f114610173578063c19d93fb1461018f578063c521e023146101ad578063d21e82ab146101cb578063fde315bd146101fb576100b4565b80630a120bb0146100b95780631ec6b60a146100d55780632b7ac3f3146100df5780636c6c32d0146100fd578063798052811461010757806386fc644214610125575b600080fd5b6100d360048036038101906100ce9190610c76565b61022e565b005b6100dd610376565b005b6100e76104e1565b6040516100f49190610d35565b60405180910390f35b610105610507565b005b61010f610663565b60405161011c9190610d5f565b60405180910390f35b61013f600480360381019061013a9190610d7a565b610669565b60405161014c9190610d5f565b60405180910390f35b61015d610684565b60405161016a9190610dc8565b60405180910390f35b61018d60048036038101906101889190610fdb565b6106aa565b005b610197610b90565b6040516101a491906110e3565b60405180910390f35b6101b5610ba1565b6040516101c29190610d5f565b60405180910390f35b6101e560048036038101906101e09190610d7a565b610bae565b6040516101f29190611119565b60405180910390f35b61021560048036038101906102109190610d7a565b610bce565b6040516102259493929190611134565b60405180910390f35b600760009054906101000a900473ffffffffffffffffffffffffffffffffffffffff1673ffffffffffffffffffffffffffffffffffffffff163373ffffffffffffffffffffffffffffffffffffffff16146102be576040517f08c379a00000000000000000000000000000000000000000000000000000000081526004016102b5906111d6565b60405180910390fd5b600060028111156102d2576102d161106c565b5b60008054906101000a900460ff1660028111156102f2576102f161106c565b5b14610332576040517f08c379a000000000000000000000000000000000000000000000000000000000815260040161032990611242565b60405180910390fd5b806001819055507f85238313f6b4aa1ea470340fc24bc06d68e734cd21411160c06714eb547571af828260405161036a929190611262565b60405180910390a15050565b600760009054906101000a900473ffffffffffffffffffffffffffffffffffffffff1673ffffffffffffffffffffffffffffffffffffffff163373ffffffffffffffffffffffffffffffffffffffff1614610406576040517f08c379a00000000000000000000000000000000000000000000000000000000081526004016103fd906111d6565b60405180910390fd5b6000600281111561041a5761041961106c565b5b60008054906101000a900460ff16600281111561043a5761043961106c565b5b1461047a576040517f08c379a000000000000000000000000000000000000000000000000000000000815260040161047190611242565b60405180910390fd5b60016000806101000a81548160ff0219169083600281111561049f5761049e61106c565b5b02179055507fff6a30dd22f5e8b783044c7d895a6e8592b55c56f139978d44dc39daf596731f600154436040516104d7929190611262565b60405180910390a1565b600660009054906101000a900473ffffffffffffffffffffffffffffffffffffffff1681565b600760009054906101000a900473ffffffffffffffffffffffffffffffffffffffff1673ffffffffffffffffffffffffffffffffffffffff163373ffffffffffffffffffffffffffffffffffffffff1614610597576040517f08c379a000000000000000000000000000000000000000000000000000000000815260040161058e906111d6565b60405180910390fd5b600160028111156105ab576105aa61106c565b5b60008054906101000a900460ff1660028111156105cb576105ca61106c565b5b1461060b576040517f08c379a0000000000000000000000000000000000000000000000000000000008152600401610602906112d7565b60405180910390fd5b60026000806101000a81548160ff021916908360028111156106305761062f61106c565b5b02179055507fa549b9addfc3693a1863ac5b0b13c42960d78df554c01ea6ac72a7db985df0cf60405160405180910390a1565b60015481565b6002816002811061067957600080fd5b016000915090505481565b600760009054906101000a900473ffffffffffffffffffffffffffffffffffffffff1681565b600160028111156106be576106bd61106c565b5b60008054906101000a900460ff1660028111156106de576106dd61106c565b5b1461071e576040517f08c379a0000000000000000000000000000000000000000000000000000000008152600401610715906112d7565b60405180910390fd5b6004600084815260200190815260200160002060009054906101000a900460ff161561077f576040517f08c379a000000000000000000000000000000000000000000000000000000000815260040161077690611343565b60405180910390fd5b610787610c0e565b6001548160006008811061079e5761079d611363565b5b60200201818152505083816001600881106107bc576107bb611363565b5b60200201818152505060026000600281106107da576107d9611363565b5b0154816002600881106107f0576107ef611363565b5b602002018181525050600260016002811061080e5761080d611363565b5b01548160036008811061082457610823611363565b5b6020020181815250508260006002811061084157610840611363565b5b60200201518160046008811061085a57610859611363565b5b6020020181815250508260016002811061087757610876611363565b5b6020020151816005600881106108905761088f611363565b5b602002018181525050816000600281106108ad576108ac611363565b5b6020020151816006600881106108c6576108c5611363565b5b602002018181525050816001600281106108e3576108e2611363565b5b6020020151816007600881106108fc576108fb611363565b5b602002018181525050600660009054906101000a900473ffffffffffffffffffffffffffffffffffffffff1673ffffffffffffffffffffffffffffffffffffffff1663c9219a7a888888856040518563ffffffff1660e01b815260040161096694939291906115bf565b602060405180830381865afa158015610983573d6000803e3d6000fd5b505050506040513d601f19601f820116820180604052508101906109a79190611632565b6109e6576040517f08c379a00000000000000000000000000000000000000000000000000000000081526004016109dd906116ab565b60405180910390fd5b60016004600086815260200190815260200160002060006101000a81548160ff0219169083151502179055506005604051806080016040528085600060028110610a3357610a32611363565b5b6020020151815260200185600160028110610a5157610a50611363565b5b6020020151815260200184600060028110610a6f57610a6e611363565b5b6020020151815260200184600160028110610a8d57610a8c611363565b5b602002015181525090806001815401808255809150506001900390600052602060002090600402016000909190919091506000820151816000015560208201518160010155604082015181600201556060820151816003015550507f94d41bb6ba59610e9200a16c6cdd6d4794b75c0a120bf7f1581eaf58e8a023b58484600060028110610b1e57610b1d611363565b5b602002015185600160028110610b3757610b36611363565b5b602002015185600060028110610b5057610b4f611363565b5b602002015186600160028110610b6957610b68611363565b5b6020020151604051610b7f9594939291906116cb565b60405180910390a150505050505050565b60008054906101000a900460ff1681565b6000600580549050905090565b60046020528060005260406000206000915054906101000a900460ff1681565b60058181548110610bde57600080fd5b90600052602060002090600402016000915090508060000154908060010154908060020154908060030154905084565b604051806101000160405280600890602082028036833780820191505090505090565b6000604051905090565b600080fd5b6000819050919050565b610c5381610c40565b8114610c5e57600080fd5b50565b600081359050610c7081610c4a565b92915050565b60008060408385031215610c8d57610c8c610c3b565b5b6000610c9b85828601610c61565b9250506020610cac85828601610c61565b9150509250929050565b600073ffffffffffffffffffffffffffffffffffffffff82169050919050565b6000819050919050565b6000610cfb610cf6610cf184610cb6565b610cd6565b610cb6565b9050919050565b6000610d0d82610ce0565b9050919050565b6000610d1f82610d02565b9050919050565b610d2f81610d14565b82525050565b6000602082019050610d4a6000830184610d26565b92915050565b610d5981610c40565b82525050565b6000602082019050610d746000830184610d50565b92915050565b600060208284031215610d9057610d8f610c3b565b5b6000610d9e84828501610c61565b91505092915050565b6000610db282610cb6565b9050919050565b610dc281610da7565b82525050565b6000602082019050610ddd6000830184610db9565b92915050565b600080fd5b6000601f19601f8301169050919050565b7f4e487b7100000000000000000000000000000000000000000000000000000000600052604160045260246000fd5b610e3182610de8565b810181811067ffffffffffffffff82111715610e5057610e4f610df9565b5b80604052505050565b6000610e63610c31565b9050610e6f8282610e28565b919050565b600067ffffffffffffffff821115610e8f57610e8e610df9565b5b602082029050919050565b600080fd5b6000610eb2610ead84610e74565b610e59565b90508060208402830185811115610ecc57610ecb610e9a565b5b835b81811015610ef55780610ee18882610c61565b845260208401935050602081019050610ece565b5050509392505050565b600082601f830112610f1457610f13610de3565b5b6002610f21848285610e9f565b91505092915050565b600067ffffffffffffffff821115610f4557610f44610df9565b5b602082029050919050565b6000610f63610f5e84610f2a565b610e59565b90508060408402830185811115610f7d57610f7c610e9a565b5b835b81811015610fa65780610f928882610eff565b845260208401935050604081019050610f7f565b5050509392505050565b600082601f830112610fc557610fc4610de3565b5b6002610fd2848285610f50565b91505092915050565b6000806000806000806101a08789031215610ff957610ff8610c3b565b5b600061100789828a01610eff565b965050604061101889828a01610fb0565b95505060c061102989828a01610eff565b94505061010061103b89828a01610c61565b93505061012061104d89828a01610eff565b92505061016061105f89828a01610eff565b9150509295509295509295565b7f4e487b7100000000000000000000000000000000000000000000000000000000600052602160045260246000fd5b600381106110ac576110ab61106c565b5b50565b60008190506110bd8261109b565b919050565b60006110cd826110af565b9050919050565b6110dd816110c2565b82525050565b60006020820190506110f860008301846110d4565b92915050565b60008115159050919050565b611113816110fe565b82525050565b600060208201905061112e600083018461110a565b92915050565b60006080820190506111496000830187610d50565b6111566020830186610d50565b6111636040830185610d50565b6111706060830184610d50565b95945050505050565b600082825260208201905092915050565b7f4f6e6c79206f776e65722063616e2063616c6c20746869730000000000000000600082015250565b60006111c0601883611179565b91506111cb8261118a565b602082019050919050565b600060208201905081810360008301526111ef816111b3565b9050919050565b7f526567697374726174696f6e206973206e6f74206f70656e0000000000000000600082015250565b600061122c601883611179565b9150611237826111f6565b602082019050919050565b6000602082019050818103600083015261125b8161121f565b9050919050565b60006040820190506112776000830185610d50565b6112846020830184610d50565b9392505050565b7f566f74696e67206973206e6f74206f70656e0000000000000000000000000000600082015250565b60006112c1601283611179565b91506112cc8261128b565b602082019050919050565b600060208201905081810360008301526112f0816112b4565b9050919050565b7f4964656e746974792068617320616c726561647920766f746564000000000000600082015250565b600061132d601a83611179565b9150611338826112f7565b602082019050919050565b6000602082019050818103600083015261135c81611320565b9050919050565b7f4e487b7100000000000000000000000000000000000000000000000000000000600052603260045260246000fd5b600060029050919050565b600081905092915050565b6000819050919050565b6113bb81610c40565b82525050565b60006113cd83836113b2565b60208301905092915050565b6000602082019050919050565b6113ef81611392565b6113f9818461139d565b9250611404826113a8565b8060005b8381101561143557815161141c87826113c1565b9650611427836113d9565b925050600181019050611408565b505050505050565b600060029050919050565b600081905092915050565b6000819050919050565b600081905092915050565b61147181611392565b61147b818461145d565b9250611486826113a8565b8060005b838110156114b757815161149e87826113c1565b96506114a9836113d9565b92505060018101905061148a565b505050505050565b60006114cb8383611468565b60408301905092915050565b6000602082019050919050565b6114ed8161143d565b6114f78184611448565b925061150282611453565b8060005b8381101561153357815161151a87826114bf565b9650611525836114d7565b925050600181019050611506565b505050505050565b600060089050919050565b600081905092915050565b6000819050919050565b6000602082019050919050565b6115718161153b565b61157b8184611546565b925061158682611551565b8060005b838110156115b757815161159e87826113c1565b96506115a98361155b565b92505060018101905061158a565b505050505050565b6000610200820190506115d560008301876113e6565b6115e260408301866114e4565b6115ef60c08301856113e6565b6115fd610100830184611568565b95945050505050565b61160f816110fe565b811461161a57600080fd5b50565b60008151905061162c81611606565b92915050565b60006020828403121561164857611647610c3b565b5b60006116568482850161161d565b91505092915050565b7f496e76616c6964205a65726f2d4b6e6f776c656467652050726f6f6600000000600082015250565b6000611695601c83611179565b91506116a08261165f565b602082019050919050565b600060208201905081810360008301526116c481611688565b9050919050565b600060a0820190506116e06000830188610d50565b6116ed6020830187610d50565b6116fa6040830186610d50565b6117076060830185610d50565b6117146080830184610d50565b969550505050505056fea2646970667358221220500235a447e19f69c7e97b6a16d53533dee9f12d7a6fb8d9b60f8047c80ad39264736f6c634300081b00336080604052348015600f57600080fd5b5061088c8061001f6000396000f3fe608060405234801561001057600080fd5b506004361061002b5760003560e01c8063c9219a7a14610030575b600080fd5b61004a600480360381019061004591906107b7565b610060565b604051610057919061083b565b60405180910390f35b60006106bd565b7f30644e72e131a029b85045b68181585d2833e84879b9709143e1f593f00000018110610098576000805260206000f35b50565b600060405183815284602082015285604082015260408160608360076107d05a03fa9150816100ce576000805260206000f35b825160408201526020830151606082015260408360808360066107d05a03fa9150816100fe576000805260206000f35b505050505050565b600060808601600087017f0628c1acb42affba00ecaf566a402da81095f5af6e80d5a25a7db1e4c7b31ac581527f27ec8329be8922e6bab2423b1025d578bc33d2943c9729cf7bc27abe8ad9e80f60208201526101a960008801357f2988597b51b945288a066efd7d80604b5d9dcdeb3669d79941f1269c001bdc9e7f23eb87965140a7f131a19d2df59a2c616f6dd45776b8c22e8bd917cbbbae891c8461009b565b6101f960208801357f1e1a278313c6ece240e1ccfb22e0da31caea192b56ae2df869329ebb5251800e7f1b2948c34357ee3e5ca6bf0c428de77149318ec03b250207df3531b5dfbc74f78461009b565b61024960408801357f19ffc0f89385f0f8c7564eae1176763c516105565ac3ca672ae1ffec8c16c2fd7f088df57ad9b2ab13652eb35218b85e8e461feb8a8a844844e8ec060c3c89e8e28461009b565b61029960608801357f216834aade83c94cffecc76cc6f071805f5bb7775a67c6296a343724ab1737027f2194ad4896123e9a2419335ae51dee08ea9f029805fdc57fec47565540b59ebe8461009b565b6102e960808801357f2723e57eff5050b0562e8bcc1bf5540955a98ed5f67039a7b1326e06b25f13277f150fdc13bc96f841bcd672e0fa5ed63f9e490edff94e56886d386e08505834e08461009b565b61033960a08801357f1b057723c461304d22f93fa05e6675c52f449666ea71fd06e9ee2fa0c89c240e7f2c55e88b29f0681adb6157c98339c34187ab14b780c654de158ec5e3ffd3b9b68461009b565b61038960c08801357f236ba32123d12d6aaa78d40d955af7c3b17a2009af32127d21e07d3fe0e00d147f1d3e253f35c76381f0f6b5c3ef1f0cce51d3c90fd90bb2a28707fd90222b77588461009b565b6103d960e08801357f1b51ce3e4acd7b3e7256c2546a7890a37abae07b732322655932680806780f357f1e0d3b104a5ba15a54d495b952d9025a42619833cf625d2ffa289e9780ce49638461009b565b833582527f30644e72e131a029b85045b68181585d97816a916871ca8d3c208c16d87cfd4760208501357f30644e72e131a029b85045b68181585d97816a916871ca8d3c208c16d87cfd4703066020830152843560408301526020850135606083015260408501356080830152606085013560a08301527f2a27e58cd7c98cb7d495e427200600997054ad256aff31cc7e84b5fb7d266d8260c08301527f1cbb48c1f1a8c083e1b14b59dadaf9d26c729021304706aeb5ca377246791fec60e08301527f08e095afe022f068436e96adaedb3d30568f6f8958d48163ec8b7335224bd7a06101008301527f1e38625d639f503c00d451fd05e0445547059eaf4014c8ab6f4a74db42a460f86101208301527f1a5903a0eb275bc14e69a23fc53dc40290e6f6bbcf746b7efabac869fea1916b6101408301527f2f094998158bfeea1e8f92be2ba6ff27edcc7ba8eff94cccfdd902c55d54b708610160830152600088015161018083015260206000018801516101a08301527f198e9393920d483a7260bfb731fb5d25f1aa493335a9e71297e485b7aef312c26101c08301527f1800deef121f1e76426a00665e5c4479674322d4f75edadd46debd5cd992f6ed6101e08301527f090689d0585ff075ec9e99ad690c3395bc4b313370b38ef355acdadcd122975b6102008301527f12c85ea5db8c6deb4aab71808dcb408fe3d1e7690c43d37b4ce6cc0166fa7daa610220830152853561024083015260208601356102608301527f2a2fcf2621f5c66184a154fc86a4a68a075c54d94d6c2cf59c411d0e23fc29096102808301527f13de24f7cc2625439db43e6d258e7febb897f3195a6b80eecc75e5d83907c3ed6102a08301527f27d26717ca8a7f553c464006b1e9eafa2e4c0474116a44854c0a6c311c6ff74f6102c08301527f01af963cdff434547e70c9d9d1d702646bf4b160f82c4ec6e28b4d1e1a05c6ef6102e08301526020826103008460086107d05a03fa82518116935050505095945050505050565b60405161038081016040526106d56000840135610067565b6106e26020840135610067565b6106ef6040840135610067565b6106fc6060840135610067565b6107096080840135610067565b61071660a0840135610067565b61072360c0840135610067565b61073060e0840135610067565b61073d818486888a610106565b8060005260206000f35b600080fd5b600080fd5b60008190508260206002028201111561076d5761076c61074c565b5b92915050565b60008190508260406002028201111561078f5761078e61074c565b5b92915050565b6000819050826020600802820111156107b1576107b061074c565b5b92915050565b60008060008061020085870312156107d2576107d1610747565b5b60006107e087828801610751565b94505060406107f187828801610773565b93505060c061080287828801610751565b92505061010061081487828801610795565b91505092959194509250565b60008115159050919050565b61083581610820565b82525050565b6000602082019050610850600083018461082c565b9291505056fea26469706673582212200697f952534d2737e1b862205a2831e1cd71a72091f4fc6e16a40f8e714b8aed64736f6c634300081b0033","opcodes":"PUSH1 0x80 PUSH1 0x40 MSTORE CALLVALUE DUP1 ISZERO PUSH2 0x10 JUMPI PUSH1 0x0 DUP1 REVERT JUMPDEST POP PUSH1 0x40 MLOAD PUSH2 0x237E CODESIZE SUB DUP1 PUSH2 0x237E DUP4 CODECOPY DUP2 DUP2 ADD PUSH1 0x40 MSTORE DUP2 ADD SWAP1 PUSH2 0x32 SWAP2 SWAP1 PUSH2 0x314 JUMP JUMPDEST CALLER PUSH1 0x7 PUSH1 0x0 PUSH2 0x100 EXP DUP2 SLOAD DUP2 PUSH20 0xFFFFFFFFFFFFFFFFFFFFFFFFFFFFFFFFFFFFFFFF MUL NOT AND SWAP1 DUP4 PUSH20 0xFFFFFFFFFFFFFFFFFFFFFFFFFFFFFFFFFFFFFFFF AND MUL OR SWAP1 SSTORE POP PUSH1 0x0 DUP1 PUSH1 0x0 PUSH2 0x100 EXP DUP2 SLOAD DUP2 PUSH1 0xFF MUL NOT AND SWAP1 DUP4 PUSH1 0x2 DUP2 GT ISZERO PUSH2 0x98 JUMPI PUSH2 0x97 PUSH2 0x341 JUMP JUMPDEST JUMPDEST MUL OR SWAP1 SSTORE POP DUP1 PUSH1 0x2 SWAP1 PUSH1 0x2 PUSH2 0xAE SWAP3 SWAP2 SWAP1 PUSH2 0x11E JUMP JUMPDEST POP PUSH1 0x40 MLOAD PUSH2 0xBB SWAP1 PUSH2 0x15E JUMP JUMPDEST PUSH1 0x40 MLOAD DUP1 SWAP2 SUB SWAP1 PUSH1 0x0 CREATE DUP1 ISZERO DUP1 ISZERO PUSH2 0xD7 JUMPI RETURNDATASIZE PUSH1 0x0 DUP1 RETURNDATACOPY RETURNDATASIZE PUSH1 0x0 REVERT JUMPDEST POP PUSH1 0x6 PUSH1 0x0 PUSH2 0x100 EXP DUP2 SLOAD DUP2 PUSH20 0xFFFFFFFFFFFFFFFFFFFFFFFFFFFFFFFFFFFFFFFF MUL NOT AND SWAP1 DUP4 PUSH20 0xFFFFFFFFFFFFFFFFFFFFFFFFFFFFFFFFFFFFFFFF AND MUL OR SWAP1 SSTORE POP POP PUSH2 0x370 JUMP JUMPDEST DUP3 PUSH1 0x2 DUP2 ADD SWAP3 DUP3 ISZERO PUSH2 0x14D JUMPI SWAP2 PUSH1 0x20 MUL DUP3 ADD JUMPDEST DUP3 DUP2 GT ISZERO PUSH2 0x14C JUMPI DUP3 MLOAD DUP3 SSTORE SWAP2 PUSH1 0x20 ADD SWAP2 SWAP1 PUSH1 0x1 ADD SWAP1 PUSH2 0x131 JUMP JUMPDEST JUMPDEST POP SWAP1 POP PUSH2 0x15A SWAP2 SWAP1 PUSH2 0x16B JUMP JUMPDEST POP SWAP1 JUMP JUMPDEST PUSH2 0x8AB DUP1 PUSH2 0x1AD3 DUP4 CODECOPY ADD SWAP1 JUMP JUMPDEST JUMPDEST DUP1 DUP3 GT ISZERO PUSH2 0x184 JUMPI PUSH1 0x0 DUP2 PUSH1 0x0 SWAP1 SSTORE POP PUSH1 0x1 ADD PUSH2 0x16C JUMP JUMPDEST POP SWAP1 JUMP JUMPDEST PUSH1 0x0 PUSH1 0x40 MLOAD SWAP1 POP SWAP1 JUMP JUMPDEST PUSH1 0x0 DUP1 REVERT JUMPDEST PUSH1 0x0 DUP1 REVERT JUMPDEST PUSH1 0x0 PUSH1 0x1F NOT PUSH1 0x1F DUP4 ADD AND SWAP1 POP SWAP2 SWAP1 POP JUMP JUMPDEST PUSH32 0x4E487B7100000000000000000000000000000000000000000000000000000000 PUSH1 0x0 MSTORE PUSH1 0x41 PUSH1 0x4 MSTORE PUSH1 0x24 PUSH1 0x0 REVERT JUMPDEST PUSH2 0x1E5 DUP3 PUSH2 0x19C JUMP JUMPDEST DUP2 ADD DUP2 DUP2 LT PUSH8 0xFFFFFFFFFFFFFFFF DUP3 GT OR ISZERO PUSH2 0x204 JUMPI PUSH2 0x203 PUSH2 0x1AD JUMP JUMPDEST JUMPDEST DUP1 PUSH1 0x40 MSTORE POP POP POP JUMP JUMPDEST PUSH1 0x0 PUSH2 0x217 PUSH2 0x188 JUMP JUMPDEST SWAP1 POP PUSH2 0x223 DUP3 DUP3 PUSH2 0x1DC JUMP JUMPDEST SWAP2 SWAP1 POP JUMP JUMPDEST PUSH1 0x0 PUSH8 0xFFFFFFFFFFFFFFFF DUP3 GT ISZERO PUSH2 0x243 JUMPI PUSH2 0x242 PUSH2 0x1AD JUMP JUMPDEST JUMPDEST PUSH1 0x20 DUP3 MUL SWAP1 POP SWAP2 SWAP1 POP JUMP JUMPDEST PUSH1 0x0 DUP1 REVERT JUMPDEST PUSH1 0x0 DUP2 SWAP1 POP SWAP2 SWAP1 POP JUMP JUMPDEST PUSH2 0x266 DUP2 PUSH2 0x253 JUMP JUMPDEST DUP2 EQ PUSH2 0x271 JUMPI PUSH1 0x0 DUP1 REVERT JUMPDEST POP JUMP JUMPDEST PUSH1 0x0 DUP2 MLOAD SWAP1 POP PUSH2 0x283 DUP2 PUSH2 0x25D JUMP JUMPDEST SWAP3 SWAP2 POP POP JUMP JUMPDEST PUSH1 0x0 PUSH2 0x29C PUSH2 0x297 DUP5 PUSH2 0x228 JUMP JUMPDEST PUSH2 0x20D JUMP JUMPDEST SWAP1 POP DUP1 PUSH1 0x20 DUP5 MUL DUP4 ADD DUP6 DUP2 GT ISZERO PUSH2 0x2B6 JUMPI PUSH2 0x2B5 PUSH2 0x24E JUMP JUMPDEST JUMPDEST DUP4 JUMPDEST DUP2 DUP2 LT ISZERO PUSH2 0x2DF JUMPI DUP1 PUSH2 0x2CB DUP9 DUP3 PUSH2 0x274 JUMP JUMPDEST DUP5 MSTORE PUSH1 0x20 DUP5 ADD SWAP4 POP POP PUSH1 0x20 DUP2 ADD SWAP1 POP PUSH2 0x2B8 JUMP JUMPDEST POP POP POP SWAP4 SWAP3 POP POP POP JUMP JUMPDEST PUSH1 0x0 DUP3 PUSH1 0x1F DUP4 ADD SLT PUSH2 0x2FE JUMPI PUSH2 0x2FD PUSH2 0x197 JUMP JUMPDEST JUMPDEST PUSH1 0x2 PUSH2 0x30B DUP5 DUP3 DUP6 PUSH2 0x289 JUMP JUMPDEST SWAP2 POP POP SWAP3 SWAP2 POP POP JUMP JUMPDEST PUSH1 0x0 PUSH1 0x40 DUP3 DUP5 SUB SLT ISZERO PUSH2 0x32A JUMPI PUSH2 0x329 PUSH2 0x192 JUMP JUMPDEST JUMPDEST PUSH1 0x0 PUSH2 0x338 DUP5 DUP3 DUP6 ADD PUSH2 0x2E9 JUMP JUMPDEST SWAP2 POP POP SWAP3 SWAP2 POP POP JUMP JUMPDEST PUSH32 0x4E487B7100000000000000000000000000000000000000000000000000000000 PUSH1 0x0 MSTORE PUSH1 0x21 PUSH1 0x4 MSTORE PUSH1 0x24 PUSH1 0x0 REVERT JUMPDEST PUSH2 0x1754 DUP1 PUSH2 0x37F PUSH1 0x0 CODECOPY PUSH1 0x0 RETURN INVALID PUSH1 0x80 PUSH1 0x40 MSTORE CALLVALUE DUP1 ISZERO PUSH2 0x10 JUMPI PUSH1 0x0 DUP1 REVERT JUMPDEST POP PUSH1 0x4 CALLDATASIZE LT PUSH2 0xB4 JUMPI PUSH1 0x0 CALLDATALOAD PUSH1 0xE0 SHR DUP1 PUSH4 0x8DA5CB5B GT PUSH2 0x71 JUMPI DUP1 PUSH4 0x8DA5CB5B EQ PUSH2 0x155 JUMPI DUP1 PUSH4 0x9B3E18F1 EQ PUSH2 0x173 JUMPI DUP1 PUSH4 0xC19D93FB EQ PUSH2 0x18F JUMPI DUP1 PUSH4 0xC521E023 EQ PUSH2 0x1AD JUMPI DUP1 PUSH4 0xD21E82AB EQ PUSH2 0x1CB JUMPI DUP1 PUSH4 0xFDE315BD EQ PUSH2 0x1FB JUMPI PUSH2 0xB4 JUMP JUMPDEST DUP1 PUSH4 0xA120BB0 EQ PUSH2 0xB9 JUMPI DUP1 PUSH4 0x1EC6B60A EQ PUSH2 0xD5 JUMPI DUP1 PUSH4 0x2B7AC3F3 EQ PUSH2 0xDF JUMPI DUP1 PUSH4 0x6C6C32D0 EQ PUSH2 0xFD JUMPI DUP1 PUSH4 0x79805281 EQ PUSH2 0x107 JUMPI DUP1 PUSH4 0x86FC6442 EQ PUSH2 0x125 JUMPI JUMPDEST PUSH1 0x0 DUP1 REVERT JUMPDEST PUSH2 0xD3 PUSH1 0x4 DUP1 CALLDATASIZE SUB DUP2 ADD SWAP1 PUSH2 0xCE SWAP2 SWAP1 PUSH2 0xC76 JUMP JUMPDEST PUSH2 0x22E JUMP JUMPDEST STOP JUMPDEST PUSH2 0xDD PUSH2 0x376 JUMP JUMPDEST STOP JUMPDEST PUSH2 0xE7 PUSH2 0x4E1 JUMP JUMPDEST PUSH1 0x40 MLOAD PUSH2 0xF4 SWAP2 SWAP1 PUSH2 0xD35 JUMP JUMPDEST PUSH1 0x40 MLOAD DUP1 SWAP2 SUB SWAP1 RETURN JUMPDEST PUSH2 0x105 PUSH2 0x507 JUMP JUMPDEST STOP JUMPDEST PUSH2 0x10F PUSH2 0x663 JUMP JUMPDEST PUSH1 0x40 MLOAD PUSH2 0x11C SWAP2 SWAP1 PUSH2 0xD5F JUMP JUMPDEST PUSH1 0x40 MLOAD DUP1 SWAP2 SUB SWAP1 RETURN JUMPDEST PUSH2 0x13F PUSH1 0x4 DUP1 CALLDATASIZE SUB DUP2 ADD SWAP1 PUSH2 0x13A SWAP2 SWAP1 PUSH2 0xD7A JUMP JUMPDEST PUSH2 0x669 JUMP JUMPDEST PUSH1 0x40 MLOAD PUSH2 0x14C SWAP2 SWAP1 PUSH2 0xD5F JUMP JUMPDEST PUSH1 0x40 MLOAD DUP1 SWAP2 SUB SWAP1 RETURN JUMPDEST PUSH2 0x15D PUSH2 0x684 JUMP JUMPDEST PUSH1 0x40 MLOAD PUSH2 0x16A SWAP2 SWAP1 PUSH2 0xDC8 JUMP JUMPDEST PUSH1 0x40 MLOAD DUP1 SWAP2 SUB SWAP1 RETURN JUMPDEST PUSH2 0x18D PUSH1 0x4 DUP1 CALLDATASIZE SUB DUP2 ADD SWAP1 PUSH2 0x188 SWAP2 SWAP1 PUSH2 0xFDB JUMP JUMPDEST PUSH2 0x6AA JUMP JUMPDEST STOP JUMPDEST PUSH2 0x197 PUSH2 0xB90 JUMP JUMPDEST PUSH1 0x40 MLOAD PUSH2 0x1A4 SWAP2 SWAP1 PUSH2 0x10E3 JUMP JUMPDEST PUSH1 0x40 MLOAD DUP1 SWAP2 SUB SWAP1 RETURN JUMPDEST PUSH2 0x1B5 PUSH2 0xBA1 JUMP JUMPDEST PUSH1 0x40 MLOAD PUSH2 0x1C2 SWAP2 SWAP1 PUSH2 0xD5F JUMP JUMPDEST PUSH1 0x40 MLOAD DUP1 SWAP2 SUB SWAP1 RETURN JUMPDEST PUSH2 0x1E5 PUSH1 0x4 DUP1 CALLDATASIZE SUB DUP2 ADD SWAP1 PUSH2 0x1E0 SWAP2 SWAP1 PUSH2 0xD7A JUMP JUMPDEST PUSH2 0xBAE JUMP JUMPDEST PUSH1 0x40 MLOAD PUSH2 0x1F2 SWAP2 SWAP1 PUSH2 0x1119 JUMP JUMPDEST PUSH1 0x40 MLOAD DUP1 SWAP2 SUB SWAP1 RETURN JUMPDEST PUSH2 0x215 PUSH1 0x4 DUP1 CALLDATASIZE SUB DUP2 ADD SWAP1 PUSH2 0x210 SWAP2 SWAP1 PUSH2 0xD7A JUMP JUMPDEST PUSH2 0xBCE JUMP JUMPDEST PUSH1 0x40 MLOAD PUSH2 0x225 SWAP5 SWAP4 SWAP3 SWAP2 SWAP1 PUSH2 0x1134 JUMP JUMPDEST PUSH1 0x40 MLOAD DUP1 SWAP2 SUB SWAP1 RETURN JUMPDEST PUSH1 0x7 PUSH1 0x0 SWAP1 SLOAD SWAP1 PUSH2 0x100 EXP SWAP1 DIV PUSH20 0xFFFFFFFFFFFFFFFFFFFFFFFFFFFFFFFFFFFFFFFF AND PUSH20 0xFFFFFFFFFFFFFFFFFFFFFFFFFFFFFFFFFFFFFFFF AND CALLER PUSH20 0xFFFFFFFFFFFFFFFFFFFFFFFFFFFFFFFFFFFFFFFF AND EQ PUSH2 0x2BE JUMPI PUSH1 0x40 MLOAD PUSH32 0x8C379A000000000000000000000000000000000000000000000000000000000 DUP2 MSTORE PUSH1 0x4 ADD PUSH2 0x2B5 SWAP1 PUSH2 0x11D6 JUMP JUMPDEST PUSH1 0x40 MLOAD DUP1 SWAP2 SUB SWAP1 REVERT JUMPDEST PUSH1 0x0 PUSH1 0x2 DUP2 GT ISZERO PUSH2 0x2D2 JUMPI PUSH2 0x2D1 PUSH2 0x106C JUMP JUMPDEST JUMPDEST PUSH1 0x0 DUP1 SLOAD SWAP1 PUSH2 0x100 EXP SWAP1 DIV PUSH1 0xFF AND PUSH1 0x2 DUP2 GT ISZERO PUSH2 0x2F2 JUMPI PUSH2 0x2F1 PUSH2 0x106C JUMP JUMPDEST JUMPDEST EQ PUSH2 0x332 JUMPI PUSH1 0x40 MLOAD PUSH32 0x8C379A000000000000000000000000000000000000000000000000000000000 DUP2 MSTORE PUSH1 0x4 ADD PUSH2 0x329 SWAP1 PUSH2 0x1242 JUMP JUMPDEST PUSH1 0x40 MLOAD DUP1 SWAP2 SUB SWAP1 REVERT JUMPDEST DUP1 PUSH1 0x1 DUP2 SWAP1 SSTORE POP PUSH32 0x85238313F6B4AA1EA470340FC24BC06D68E734CD21411160C06714EB547571AF DUP3 DUP3 PUSH1 0x40 MLOAD PUSH2 0x36A SWAP3 SWAP2 SWAP1 PUSH2 0x1262 JUMP JUMPDEST PUSH1 0x40 MLOAD DUP1 SWAP2 SUB SWAP1 LOG1 POP POP JUMP JUMPDEST PUSH1 0x7 PUSH1 0x0 SWAP1 SLOAD SWAP1 PUSH2 0x100 EXP SWAP1 DIV PUSH20 0xFFFFFFFFFFFFFFFFFFFFFFFFFFFFFFFFFFFFFFFF AND PUSH20 0xFFFFFFFFFFFFFFFFFFFFFFFFFFFFFFFFFFFFFFFF AND CALLER PUSH20 0xFFFFFFFFFFFFFFFFFFFFFFFFFFFFFFFFFFFFFFFF AND EQ PUSH2 0x406 JUMPI PUSH1 0x40 MLOAD PUSH32 0x8C379A000000000000000000000000000000000000000000000000000000000 DUP2 MSTORE PUSH1 0x4 ADD PUSH2 0x3FD SWAP1 PUSH2 0x11D6 JUMP JUMPDEST PUSH1 0x40 MLOAD DUP1 SWAP2 SUB SWAP1 REVERT JUMPDEST PUSH1 0x0 PUSH1 0x2 DUP2 GT ISZERO PUSH2 0x41A JUMPI PUSH2 0x419 PUSH2 0x106C JUMP JUMPDEST JUMPDEST PUSH1 0x0 DUP1 SLOAD SWAP1 PUSH2 0x100 EXP SWAP1 DIV PUSH1 0xFF AND PUSH1 0x2 DUP2 GT ISZERO PUSH2 0x43A JUMPI PUSH2 0x439 PUSH2 0x106C JUMP JUMPDEST JUMPDEST EQ PUSH2 0x47A JUMPI PUSH1 0x40 MLOAD PUSH32 0x8C379A000000000000000000000000000000000000000000000000000000000 DUP2 MSTORE PUSH1 0x4 ADD PUSH2 0x471 SWAP1 PUSH2 0x1242 JUMP JUMPDEST PUSH1 0x40 MLOAD DUP1 SWAP2 SUB SWAP1 REVERT JUMPDEST PUSH1 0x1 PUSH1 0x0 DUP1 PUSH2 0x100 EXP DUP2 SLOAD DUP2 PUSH1 0xFF MUL NOT AND SWAP1 DUP4 PUSH1 0x2 DUP2 GT ISZERO PUSH2 0x49F JUMPI PUSH2 0x49E PUSH2 0x106C JUMP JUMPDEST JUMPDEST MUL OR SWAP1 SSTORE POP PUSH32 0xFF6A30DD22F5E8B783044C7D895A6E8592B55C56F139978D44DC39DAF596731F PUSH1 0x1 SLOAD NUMBER PUSH1 0x40 MLOAD PUSH2 0x4D7 SWAP3 SWAP2 SWAP1 PUSH2 0x1262 JUMP JUMPDEST PUSH1 0x40 MLOAD DUP1 SWAP2 SUB SWAP1 LOG1 JUMP JUMPDEST PUSH1 0x6 PUSH1 0x0 SWAP1 SLOAD SWAP1 PUSH2 0x100 EXP SWAP1 DIV PUSH20 0xFFFFFFFFFFFFFFFFFFFFFFFFFFFFFFFFFFFFFFFF AND DUP2 JUMP JUMPDEST PUSH1 0x7 PUSH1 0x0 SWAP1 SLOAD SWAP1 PUSH2 0x100 EXP SWAP1 DIV PUSH20 0xFFFFFFFFFFFFFFFFFFFFFFFFFFFFFFFFFFFFFFFF AND PUSH20 0xFFFFFFFFFFFFFFFFFFFFFFFFFFFFFFFFFFFFFFFF AND CALLER PUSH20 0xFFFFFFFFFFFFFFFFFFFFFFFFFFFFFFFFFFFFFFFF AND EQ PUSH2 0x597 JUMPI PUSH1 0x40 MLOAD PUSH32 0x8C379A000000000000000000000000000000000000000000000000000000000 DUP2 MSTORE PUSH1 0x4 ADD PUSH2 0x58E SWAP1 PUSH2 0x11D6 JUMP JUMPDEST PUSH1 0x40 MLOAD DUP1 SWAP2 SUB SWAP1 REVERT JUMPDEST PUSH1 0x1 PUSH1 0x2 DUP2 GT ISZERO PUSH2 0x5AB JUMPI PUSH2 0x5AA PUSH2 0x106C JUMP JUMPDEST JUMPDEST PUSH1 0x0 DUP1 SLOAD SWAP1 PUSH2 0x100 EXP SWAP1 DIV PUSH1 0xFF AND PUSH1 0x2 DUP2 GT ISZERO PUSH2 0x5CB JUMPI PUSH2 0x5CA PUSH2 0x106C JUMP JUMPDEST JUMPDEST EQ PUSH2 0x60B JUMPI PUSH1 0x40 MLOAD PUSH32 0x8C379A000000000000000000000000000000000000000000000000000000000 DUP2 MSTORE PUSH1 0x4 ADD PUSH2 0x602 SWAP1 PUSH2 0x12D7 JUMP JUMPDEST PUSH1 0x40 MLOAD DUP1 SWAP2 SUB SWAP1 REVERT JUMPDEST PUSH1 0x2 PUSH1 0x0 DUP1 PUSH2 0x100 EXP DUP2 SLOAD DUP2 PUSH1 0xFF MUL NOT AND SWAP1 DUP4 PUSH1 0x2 DUP2 GT ISZERO PUSH2 0x630 JUMPI PUSH2 0x62F PUSH2 0x106C JUMP JUMPDEST JUMPDEST MUL OR SWAP1 SSTORE POP PUSH32 0xA549B9ADDFC3693A1863AC5B0B13C42960D78DF554C01EA6AC72A7DB985DF0CF PUSH1 0x40 MLOAD PUSH1 0x40 MLOAD DUP1 SWAP2 SUB SWAP1 LOG1 JUMP JUMPDEST PUSH1 0x1 SLOAD DUP2 JUMP JUMPDEST PUSH1 0x2 DUP2 PUSH1 0x2 DUP2 LT PUSH2 0x679 JUMPI PUSH1 0x0 DUP1 REVERT JUMPDEST ADD PUSH1 0x0 SWAP2 POP SWAP1 POP SLOAD DUP2 JUMP JUMPDEST PUSH1 0x7 PUSH1 0x0 SWAP1 SLOAD SWAP1 PUSH2 0x100 EXP SWAP1 DIV PUSH20 0xFFFFFFFFFFFFFFFFFFFFFFFFFFFFFFFFFFFFFFFF AND DUP2 JUMP JUMPDEST PUSH1 0x1 PUSH1 0x2 DUP2 GT ISZERO PUSH2 0x6BE JUMPI PUSH2 0x6BD PUSH2 0x106C JUMP JUMPDEST JUMPDEST PUSH1 0x0 DUP1 SLOAD SWAP1 PUSH2 0x100 EXP SWAP1 DIV PUSH1 0xFF AND PUSH1 0x2 DUP2 GT ISZERO PUSH2 0x6DE JUMPI PUSH2 0x6DD PUSH2 0x106C JUMP JUMPDEST JUMPDEST EQ PUSH2 0x71E JUMPI PUSH1 0x40 MLOAD PUSH32 0x8C379A000000000000000000000000000000000000000000000000000000000 DUP2 MSTORE PUSH1 0x4 ADD PUSH2 0x715 SWAP1 PUSH2 0x12D7 JUMP JUMPDEST PUSH1 0x40 MLOAD DUP1 SWAP2 SUB SWAP1 REVERT JUMPDEST PUSH1 0x4 PUSH1 0x0 DUP5 DUP2 MSTORE PUSH1 0x20 ADD SWAP1 DUP2 MSTORE PUSH1 0x20 ADD PUSH1 0x0 KECCAK256 PUSH1 0x0 SWAP1 SLOAD SWAP1 PUSH2 0x100 EXP SWAP1 DIV PUSH1 0xFF AND ISZERO PUSH2 0x77F JUMPI PUSH1 0x40 MLOAD PUSH32 0x8C379A000000000000000000000000000000000000000000000000000000000 DUP2 MSTORE PUSH1 0x4 ADD PUSH2 0x776 SWAP1 PUSH2 0x1343 JUMP JUMPDEST PUSH1 0x40 MLOAD DUP1 SWAP2 SUB SWAP1 REVERT JUMPDEST PUSH2 0x787 PUSH2 0xC0E JUMP JUMPDEST PUSH1 0x1 SLOAD DUP2 PUSH1 0x0 PUSH1 0x8 DUP2 LT PUSH2 0x79E JUMPI PUSH2 0x79D PUSH2 0x1363 JUMP JUMPDEST JUMPDEST PUSH1 0x20 MUL ADD DUP2 DUP2 MSTORE POP POP DUP4 DUP2 PUSH1 0x1 PUSH1 0x8 DUP2 LT PUSH2 0x7BC JUMPI PUSH2 0x7BB PUSH2 0x1363 JUMP JUMPDEST JUMPDEST PUSH1 0x20 MUL ADD DUP2 DUP2 MSTORE POP POP PUSH1 0x2 PUSH1 0x0 PUSH1 0x2 DUP2 LT PUSH2 0x7DA JUMPI PUSH2 0x7D9 PUSH2 0x1363 JUMP JUMPDEST JUMPDEST ADD SLOAD DUP2 PUSH1 0x2 PUSH1 0x8 DUP2 LT PUSH2 0x7F0 JUMPI PUSH2 0x7EF PUSH2 0x1363 JUMP JUMPDEST JUMPDEST PUSH1 0x20 MUL ADD DUP2 DUP2 MSTORE POP POP PUSH1 0x2 PUSH1 0x1 PUSH1 0x2 DUP2 LT PUSH2 0x80E JUMPI PUSH2 0x80D PUSH2 0x1363 JUMP JUMPDEST JUMPDEST ADD SLOAD DUP2 PUSH1 0x3 PUSH1 0x8 DUP2 LT PUSH2 0x824 JUMPI PUSH2 0x823 PUSH2 0x1363 JUMP JUMPDEST JUMPDEST PUSH1 0x20 MUL ADD DUP2 DUP2 MSTORE POP POP DUP3 PUSH1 0x0 PUSH1 0x2 DUP2 LT PUSH2 0x841 JUMPI PUSH2 0x840 PUSH2 0x1363 JUMP JUMPDEST JUMPDEST PUSH1 0x20 MUL ADD MLOAD DUP2 PUSH1 0x4 PUSH1 0x8 DUP2 LT PUSH2 0x85A JUMPI PUSH2 0x859 PUSH2 0x1363 JUMP JUMPDEST JUMPDEST PUSH1 0x20 MUL ADD DUP2 DUP2 MSTORE POP POP DUP3 PUSH1 0x1 PUSH1 0x2 DUP2 LT PUSH2 0x877 JUMPI PUSH2 0x876 PUSH2 0x1363 JUMP JUMPDEST JUMPDEST PUSH1 0x20 MUL ADD MLOAD DUP2 PUSH1 0x5 PUSH1 0x8 DUP2 LT PUSH2 0x890 JUMPI PUSH2 0x88F PUSH2 0x1363 JUMP JUMPDEST JUMPDEST PUSH1 0x20 MUL ADD DUP2 DUP2 MSTORE POP POP DUP2 PUSH1 0x0 PUSH1 0x2 DUP2 LT PUSH2 0x8AD JUMPI PUSH2 0x8AC PUSH2 0x1363 JUMP JUMPDEST JUMPDEST PUSH1 0x20 MUL ADD MLOAD DUP2 PUSH1 0x6 PUSH1 0x8 DUP2 LT PUSH2 0x8C6 JUMPI PUSH2 0x8C5 PUSH2 0x1363 JUMP JUMPDEST JUMPDEST PUSH1 0x20 MUL ADD DUP2 DUP2 MSTORE POP POP DUP2 PUSH1 0x1 PUSH1 0x2 DUP2 LT PUSH2 0x8E3 JUMPI PUSH2 0x8E2 PUSH2 0x1363 JUMP JUMPDEST JUMPDEST PUSH1 0x20 MUL ADD MLOAD DUP2 PUSH1 0x7 PUSH1 0x8 DUP2 LT PUSH2 0x8FC JUMPI PUSH2 0x8FB PUSH2 0x1363 JUMP JUMPDEST JUMPDEST PUSH1 0x20 MUL ADD DUP2 DUP2 MSTORE POP POP PUSH1 0x6 PUSH1 0x0 SWAP1 SLOAD SWAP1 PUSH2 0x100 EXP SWAP1 DIV PUSH20 0xFFFFFFFFFFFFFFFFFFFFFFFFFFFFFFFFFFFFFFFF AND PUSH20 0xFFFFFFFFFFFFFFFFFFFFFFFFFFFFFFFFFFFFFFFF AND PUSH4 0xC9219A7A DUP9 DUP9 DUP9 DUP6 PUSH1 0x40 MLOAD DUP6 PUSH4 0xFFFFFFFF AND PUSH1 0xE0 SHL DUP2 MSTORE PUSH1 0x4 ADD PUSH2 0x966 SWAP5 SWAP4 SWAP3 SWAP2 SWAP1 PUSH2 0x15BF JUMP JUMPDEST PUSH1 0x20 PUSH1 0x40 MLOAD DUP1 DUP4 SUB DUP2 DUP7 GAS STATICCALL ISZERO DUP1 ISZERO PUSH2 0x983 JUMPI RETURNDATASIZE PUSH1 0x0 DUP1 RETURNDATACOPY RETURNDATASIZE PUSH1 0x0 REVERT JUMPDEST POP POP POP POP PUSH1 0x40 MLOAD RETURNDATASIZE PUSH1 0x1F NOT PUSH1 0x1F DUP3 ADD AND DUP3 ADD DUP1 PUSH1 0x40 MSTORE POP DUP2 ADD SWAP1 PUSH2 0x9A7 SWAP2 SWAP1 PUSH2 0x1632 JUMP JUMPDEST PUSH2 0x9E6 JUMPI PUSH1 0x40 MLOAD PUSH32 0x8C379A000000000000000000000000000000000000000000000000000000000 DUP2 MSTORE PUSH1 0x4 ADD PUSH2 0x9DD SWAP1 PUSH2 0x16AB JUMP JUMPDEST PUSH1 0x40 MLOAD DUP1 SWAP2 SUB SWAP1 REVERT JUMPDEST PUSH1 0x1 PUSH1 0x4 PUSH1 0x0 DUP7 DUP2 MSTORE PUSH1 0x20 ADD SWAP1 DUP2 MSTORE PUSH1 0x20 ADD PUSH1 0x0 KECCAK256 PUSH1 0x0 PUSH2 0x100 EXP DUP2 SLOAD DUP2 PUSH1 0xFF MUL NOT AND SWAP1 DUP4 ISZERO ISZERO MUL OR SWAP1 SSTORE POP PUSH1 0x5 PUSH1 0x40 MLOAD DUP1 PUSH1 0x80 ADD PUSH1 0x40 MSTORE DUP1 DUP6 PUSH1 0x0 PUSH1 0x2 DUP2 LT PUSH2 0xA33 JUMPI PUSH2 0xA32 PUSH2 0x1363 JUMP JUMPDEST JUMPDEST PUSH1 0x20 MUL ADD MLOAD DUP2 MSTORE PUSH1 0x20 ADD DUP6 PUSH1 0x1 PUSH1 0x2 DUP2 LT PUSH2 0xA51 JUMPI PUSH2 0xA50 PUSH2 0x1363 JUMP JUMPDEST JUMPDEST PUSH1 0x20 MUL ADD MLOAD DUP2 MSTORE PUSH1 0x20 ADD DUP5 PUSH1 0x0 PUSH1 0x2 DUP2 LT PUSH2 0xA6F JUMPI PUSH2 0xA6E PUSH2 0x1363 JUMP JUMPDEST JUMPDEST PUSH1 0x20 MUL ADD MLOAD DUP2 MSTORE PUSH1 0x20 ADD DUP5 PUSH1 0x1 PUSH1 0x2 DUP2 LT PUSH2 0xA8D JUMPI PUSH2 0xA8C PUSH2 0x1363 JUMP JUMPDEST JUMPDEST PUSH1 0x20 MUL ADD MLOAD DUP2 MSTORE POP SWAP1 DUP1 PUSH1 0x1 DUP2 SLOAD ADD DUP1 DUP3 SSTORE DUP1 SWAP2 POP POP PUSH1 0x1 SWAP1 SUB SWAP1 PUSH1 0x0 MSTORE PUSH1 0x20 PUSH1 0x0 KECCAK256 SWAP1 PUSH1 0x4 MUL ADD PUSH1 0x0 SWAP1 SWAP2 SWAP1 SWAP2 SWAP1 SWAP2 POP PUSH1 0x0 DUP3 ADD MLOAD DUP2 PUSH1 0x0 ADD SSTORE PUSH1 0x20 DUP3 ADD MLOAD DUP2 PUSH1 0x1 ADD SSTORE PUSH1 0x40 DUP3 ADD MLOAD DUP2 PUSH1 0x2 ADD SSTORE PUSH1 0x60 DUP3 ADD MLOAD DUP2 PUSH1 0x3 ADD SSTORE POP POP PUSH32 0x94D41BB6BA59610E9200A16C6CDD6D4794B75C0A120BF7F1581EAF58E8A023B5 DUP5 DUP5 PUSH1 0x0 PUSH1 0x2 DUP2 LT PUSH2 0xB1E JUMPI PUSH2 0xB1D PUSH2 0x1363 JUMP JUMPDEST JUMPDEST PUSH1 0x20 MUL ADD MLOAD DUP6 PUSH1 0x1 PUSH1 0x2 DUP2 LT PUSH2 0xB37 JUMPI PUSH2 0xB36 PUSH2 0x1363 JUMP JUMPDEST JUMPDEST PUSH1 0x20 MUL ADD MLOAD DUP6 PUSH1 0x0 PUSH1 0x2 DUP2 LT PUSH2 0xB50 JUMPI PUSH2 0xB4F PUSH2 0x1363 JUMP JUMPDEST JUMPDEST PUSH1 0x20 MUL ADD MLOAD DUP7 PUSH1 0x1 PUSH1 0x2 DUP2 LT PUSH2 0xB69 JUMPI PUSH2 0xB68 PUSH2 0x1363 JUMP JUMPDEST JUMPDEST PUSH1 0x20 MUL ADD MLOAD PUSH1 0x40 MLOAD PUSH2 0xB7F SWAP6 SWAP5 SWAP4 SWAP3 SWAP2 SWAP1 PUSH2 0x16CB JUMP JUMPDEST PUSH1 0x40 MLOAD DUP1 SWAP2 SUB SWAP1 LOG1 POP POP POP POP POP POP POP JUMP JUMPDEST PUSH1 0x0 DUP1 SLOAD SWAP1 PUSH2 0x100 EXP SWAP1 DIV PUSH1 0xFF AND DUP2 JUMP JUMPDEST PUSH1 0x0 PUSH1 0x5 DUP1 SLOAD SWAP1 POP SWAP1 POP SWAP1 JUMP JUMPDEST PUSH1 0x4 PUSH1 0x20 MSTORE DUP1 PUSH1 0x0 MSTORE PUSH1 0x40 PUSH1 0x0 KECCAK256 PUSH1 0x0 SWAP2 POP SLOAD SWAP1 PUSH2 0x100 EXP SWAP1 DIV PUSH1 0xFF AND DUP2 JUMP JUMPDEST PUSH1 0x5 DUP2 DUP2 SLOAD DUP2 LT PUSH2 0xBDE JUMPI PUSH1 0x0 DUP1 REVERT JUMPDEST SWAP1 PUSH1 0x0 MSTORE PUSH1 0x20 PUSH1 0x0 KECCAK256 SWAP1 PUSH1 0x4 MUL ADD PUSH1 0x0 SWAP2 POP SWAP1 POP DUP1 PUSH1 0x0 ADD SLOAD SWAP1 DUP1 PUSH1 0x1 ADD SLOAD SWAP1 DUP1 PUSH1 0x2 ADD SLOAD SWAP1 DUP1 PUSH1 0x3 ADD SLOAD SWAP1 POP DUP5 JUMP JUMPDEST PUSH1 0x40 MLOAD DUP1 PUSH2 0x100 ADD PUSH1 0x40 MSTORE DUP1 PUSH1 0x8 SWAP1 PUSH1 0x20 DUP3 MUL DUP1 CALLDATASIZE DUP4 CALLDATACOPY DUP1 DUP3 ADD SWAP2 POP POP SWAP1 POP POP SWAP1 JUMP JUMPDEST PUSH1 0x0 PUSH1 0x40 MLOAD SWAP1 POP SWAP1 JUMP JUMPDEST PUSH1 0x0 DUP1 REVERT JUMPDEST PUSH1 0x0 DUP2 SWAP1 POP SWAP2 SWAP1 POP JUMP JUMPDEST PUSH2 0xC53 DUP2 PUSH2 0xC40 JUMP JUMPDEST DUP2 EQ PUSH2 0xC5E JUMPI PUSH1 0x0 DUP1 REVERT JUMPDEST POP JUMP JUMPDEST PUSH1 0x0 DUP2 CALLDATALOAD SWAP1 POP PUSH2 0xC70 DUP2 PUSH2 0xC4A JUMP JUMPDEST SWAP3 SWAP2 POP POP JUMP JUMPDEST PUSH1 0x0 DUP1 PUSH1 0x40 DUP4 DUP6 SUB SLT ISZERO PUSH2 0xC8D JUMPI PUSH2 0xC8C PUSH2 0xC3B JUMP JUMPDEST JUMPDEST PUSH1 0x0 PUSH2 0xC9B DUP6 DUP3 DUP7 ADD PUSH2 0xC61 JUMP JUMPDEST SWAP3 POP POP PUSH1 0x20 PUSH2 0xCAC DUP6 DUP3 DUP7 ADD PUSH2 0xC61 JUMP JUMPDEST SWAP2 POP POP SWAP3 POP SWAP3 SWAP1 POP JUMP JUMPDEST PUSH1 0x0 PUSH20 0xFFFFFFFFFFFFFFFFFFFFFFFFFFFFFFFFFFFFFFFF DUP3 AND SWAP1 POP SWAP2 SWAP1 POP JUMP JUMPDEST PUSH1 0x0 DUP2 SWAP1 POP SWAP2 SWAP1 POP JUMP JUMPDEST PUSH1 0x0 PUSH2 0xCFB PUSH2 0xCF6 PUSH2 0xCF1 DUP5 PUSH2 0xCB6 JUMP JUMPDEST PUSH2 0xCD6 JUMP JUMPDEST PUSH2 0xCB6 JUMP JUMPDEST SWAP1 POP SWAP2 SWAP1 POP JUMP JUMPDEST PUSH1 0x0 PUSH2 0xD0D DUP3 PUSH2 0xCE0 JUMP JUMPDEST SWAP1 POP SWAP2 SWAP1 POP JUMP JUMPDEST PUSH1 0x0 PUSH2 0xD1F DUP3 PUSH2 0xD02 JUMP JUMPDEST SWAP1 POP SWAP2 SWAP1 POP JUMP JUMPDEST PUSH2 0xD2F DUP2 PUSH2 0xD14 JUMP JUMPDEST DUP3 MSTORE POP POP JUMP JUMPDEST PUSH1 0x0 PUSH1 0x20 DUP3 ADD SWAP1 POP PUSH2 0xD4A PUSH1 0x0 DUP4 ADD DUP5 PUSH2 0xD26 JUMP JUMPDEST SWAP3 SWAP2 POP POP JUMP JUMPDEST PUSH2 0xD59 DUP2 PUSH2 0xC40 JUMP JUMPDEST DUP3 MSTORE POP POP JUMP JUMPDEST PUSH1 0x0 PUSH1 0x20 DUP3 ADD SWAP1 POP PUSH2 0xD74 PUSH1 0x0 DUP4 ADD DUP5 PUSH2 0xD50 JUMP JUMPDEST SWAP3 SWAP2 POP POP JUMP JUMPDEST PUSH1 0x0 PUSH1 0x20 DUP3 DUP5 SUB SLT ISZERO PUSH2 0xD90 JUMPI PUSH2 0xD8F PUSH2 0xC3B JUMP JUMPDEST JUMPDEST PUSH1 0x0 PUSH2 0xD9E DUP5 DUP3 DUP6 ADD PUSH2 0xC61 JUMP JUMPDEST SWAP2 POP POP SWAP3 SWAP2 POP POP JUMP JUMPDEST PUSH1 0x0 PUSH2 0xDB2 DUP3 PUSH2 0xCB6 JUMP JUMPDEST SWAP1 POP SWAP2 SWAP1 POP JUMP JUMPDEST PUSH2 0xDC2 DUP2 PUSH2 0xDA7 JUMP JUMPDEST DUP3 MSTORE POP POP JUMP JUMPDEST PUSH1 0x0 PUSH1 0x20 DUP3 ADD SWAP1 POP PUSH2 0xDDD PUSH1 0x0 DUP4 ADD DUP5 PUSH2 0xDB9 JUMP JUMPDEST SWAP3 SWAP2 POP POP JUMP JUMPDEST PUSH1 0x0 DUP1 REVERT JUMPDEST PUSH1 0x0 PUSH1 0x1F NOT PUSH1 0x1F DUP4 ADD AND SWAP1 POP SWAP2 SWAP1 POP JUMP JUMPDEST PUSH32 0x4E487B7100000000000000000000000000000000000000000000000000000000 PUSH1 0x0 MSTORE PUSH1 0x41 PUSH1 0x4 MSTORE PUSH1 0x24 PUSH1 0x0 REVERT JUMPDEST PUSH2 0xE31 DUP3 PUSH2 0xDE8 JUMP JUMPDEST DUP2 ADD DUP2 DUP2 LT PUSH8 0xFFFFFFFFFFFFFFFF DUP3 GT OR ISZERO PUSH2 0xE50 JUMPI PUSH2 0xE4F PUSH2 0xDF9 JUMP JUMPDEST JUMPDEST DUP1 PUSH1 0x40 MSTORE POP POP POP JUMP JUMPDEST PUSH1 0x0 PUSH2 0xE63 PUSH2 0xC31 JUMP JUMPDEST SWAP1 POP PUSH2 0xE6F DUP3 DUP3 PUSH2 0xE28 JUMP JUMPDEST SWAP2 SWAP1 POP JUMP JUMPDEST PUSH1 0x0 PUSH8 0xFFFFFFFFFFFFFFFF DUP3 GT ISZERO PUSH2 0xE8F JUMPI PUSH2 0xE8E PUSH2 0xDF9 JUMP JUMPDEST JUMPDEST PUSH1 0x20 DUP3 MUL SWAP1 POP SWAP2 SWAP1 POP JUMP JUMPDEST PUSH1 0x0 DUP1 REVERT JUMPDEST PUSH1 0x0 PUSH2 0xEB2 PUSH2 0xEAD DUP5 PUSH2 0xE74 JUMP JUMPDEST PUSH2 0xE59 JUMP JUMPDEST SWAP1 POP DUP1 PUSH1 0x20 DUP5 MUL DUP4 ADD DUP6 DUP2 GT ISZERO PUSH2 0xECC JUMPI PUSH2 0xECB PUSH2 0xE9A JUMP JUMPDEST JUMPDEST DUP4 JUMPDEST DUP2 DUP2 LT ISZERO PUSH2 0xEF5 JUMPI DUP1 PUSH2 0xEE1 DUP9 DUP3 PUSH2 0xC61 JUMP JUMPDEST DUP5 MSTORE PUSH1 0x20 DUP5 ADD SWAP4 POP POP PUSH1 0x20 DUP2 ADD SWAP1 POP PUSH2 0xECE JUMP JUMPDEST POP POP POP SWAP4 SWAP3 POP POP POP JUMP JUMPDEST PUSH1 0x0 DUP3 PUSH1 0x1F DUP4 ADD SLT PUSH2 0xF14 JUMPI PUSH2 0xF13 PUSH2 0xDE3 JUMP JUMPDEST JUMPDEST PUSH1 0x2 PUSH2 0xF21 DUP5 DUP3 DUP6 PUSH2 0xE9F JUMP JUMPDEST SWAP2 POP POP SWAP3 SWAP2 POP POP JUMP JUMPDEST PUSH1 0x0 PUSH8 0xFFFFFFFFFFFFFFFF DUP3 GT ISZERO PUSH2 0xF45 JUMPI PUSH2 0xF44 PUSH2 0xDF9 JUMP JUMPDEST JUMPDEST PUSH1 0x20 DUP3 MUL SWAP1 POP SWAP2 SWAP1 POP JUMP JUMPDEST PUSH1 0x0 PUSH2 0xF63 PUSH2 0xF5E DUP5 PUSH2 0xF2A JUMP JUMPDEST PUSH2 0xE59 JUMP JUMPDEST SWAP1 POP DUP1 PUSH1 0x40 DUP5 MUL DUP4 ADD DUP6 DUP2 GT ISZERO PUSH2 0xF7D JUMPI PUSH2 0xF7C PUSH2 0xE9A JUMP JUMPDEST JUMPDEST DUP4 JUMPDEST DUP2 DUP2 LT ISZERO PUSH2 0xFA6 JUMPI DUP1 PUSH2 0xF92 DUP9 DUP3 PUSH2 0xEFF JUMP JUMPDEST DUP5 MSTORE PUSH1 0x20 DUP5 ADD SWAP4 POP POP PUSH1 0x40 DUP2 ADD SWAP1 POP PUSH2 0xF7F JUMP JUMPDEST POP POP POP SWAP4 SWAP3 POP POP POP JUMP JUMPDEST PUSH1 0x0 DUP3 PUSH1 0x1F DUP4 ADD SLT PUSH2 0xFC5 JUMPI PUSH2 0xFC4 PUSH2 0xDE3 JUMP JUMPDEST JUMPDEST PUSH1 0x2 PUSH2 0xFD2 DUP5 DUP3 DUP6 PUSH2 0xF50 JUMP JUMPDEST SWAP2 POP POP SWAP3 SWAP2 POP POP JUMP JUMPDEST PUSH1 0x0 DUP1 PUSH1 0x0 DUP1 PUSH1 0x0 DUP1 PUSH2 0x1A0 DUP8 DUP10 SUB SLT ISZERO PUSH2 0xFF9 JUMPI PUSH2 0xFF8 PUSH2 0xC3B JUMP JUMPDEST JUMPDEST PUSH1 0x0 PUSH2 0x1007 DUP10 DUP3 DUP11 ADD PUSH2 0xEFF JUMP JUMPDEST SWAP7 POP POP PUSH1 0x40 PUSH2 0x1018 DUP10 DUP3 DUP11 ADD PUSH2 0xFB0 JUMP JUMPDEST SWAP6 POP POP PUSH1 0xC0 PUSH2 0x1029 DUP10 DUP3 DUP11 ADD PUSH2 0xEFF JUMP JUMPDEST SWAP5 POP POP PUSH2 0x100 PUSH2 0x103B DUP10 DUP3 DUP11 ADD PUSH2 0xC61 JUMP JUMPDEST SWAP4 POP POP PUSH2 0x120 PUSH2 0x104D DUP10 DUP3 DUP11 ADD PUSH2 0xEFF JUMP JUMPDEST SWAP3 POP POP PUSH2 0x160 PUSH2 0x105F DUP10 DUP3 DUP11 ADD PUSH2 0xEFF JUMP JUMPDEST SWAP2 POP POP SWAP3 SWAP6 POP SWAP3 SWAP6 POP SWAP3 SWAP6 JUMP JUMPDEST PUSH32 0x4E487B7100000000000000000000000000000000000000000000000000000000 PUSH1 0x0 MSTORE PUSH1 0x21 PUSH1 0x4 MSTORE PUSH1 0x24 PUSH1 0x0 REVERT JUMPDEST PUSH1 0x3 DUP2 LT PUSH2 0x10AC JUMPI PUSH2 0x10AB PUSH2 0x106C JUMP JUMPDEST JUMPDEST POP JUMP JUMPDEST PUSH1 0x0 DUP2 SWAP1 POP PUSH2 0x10BD DUP3 PUSH2 0x109B JUMP JUMPDEST SWAP2 SWAP1 POP JUMP JUMPDEST PUSH1 0x0 PUSH2 0x10CD DUP3 PUSH2 0x10AF JUMP JUMPDEST SWAP1 POP SWAP2 SWAP1 POP JUMP JUMPDEST PUSH2 0x10DD DUP2 PUSH2 0x10C2 JUMP JUMPDEST DUP3 MSTORE POP POP JUMP JUMPDEST PUSH1 0x0 PUSH1 0x20 DUP3 ADD SWAP1 POP PUSH2 0x10F8 PUSH1 0x0 DUP4 ADD DUP5 PUSH2 0x10D4 JUMP JUMPDEST SWAP3 SWAP2 POP POP JUMP JUMPDEST PUSH1 0x0 DUP2 ISZERO ISZERO SWAP1 POP SWAP2 SWAP1 POP JUMP JUMPDEST PUSH2 0x1113 DUP2 PUSH2 0x10FE JUMP JUMPDEST DUP3 MSTORE POP POP JUMP JUMPDEST PUSH1 0x0 PUSH1 0x20 DUP3 ADD SWAP1 POP PUSH2 0x112E PUSH1 0x0 DUP4 ADD DUP5 PUSH2 0x110A JUMP JUMPDEST SWAP3 SWAP2 POP POP JUMP JUMPDEST PUSH1 0x0 PUSH1 0x80 DUP3 ADD SWAP1 POP PUSH2 0x1149 PUSH1 0x0 DUP4 ADD DUP8 PUSH2 0xD50 JUMP JUMPDEST PUSH2 0x1156 PUSH1 0x20 DUP4 ADD DUP7 PUSH2 0xD50 JUMP JUMPDEST PUSH2 0x1163 PUSH1 0x40 DUP4 ADD DUP6 PUSH2 0xD50 JUMP JUMPDEST PUSH2 0x1170 PUSH1 0x60 DUP4 ADD DUP5 PUSH2 0xD50 JUMP JUMPDEST SWAP6 SWAP5 POP POP POP POP POP JUMP JUMPDEST PUSH1 0x0 DUP3 DUP3 MSTORE PUSH1 0x20 DUP3 ADD SWAP1 POP SWAP3 SWAP2 POP POP JUMP JUMPDEST PUSH32 0x4F6E6C79206F776E65722063616E2063616C6C20746869730000000000000000 PUSH1 0x0 DUP3 ADD MSTORE POP JUMP JUMPDEST PUSH1 0x0 PUSH2 0x11C0 PUSH1 0x18 DUP4 PUSH2 0x1179 JUMP JUMPDEST SWAP2 POP PUSH2 0x11CB DUP3 PUSH2 0x118A JUMP JUMPDEST PUSH1 0x20 DUP3 ADD SWAP1 POP SWAP2 SWAP1 POP JUMP JUMPDEST PUSH1 0x0 PUSH1 0x20 DUP3 ADD SWAP1 POP DUP2 DUP2 SUB PUSH1 0x0 DUP4 ADD MSTORE PUSH2 0x11EF DUP2 PUSH2 0x11B3 JUMP JUMPDEST SWAP1 POP SWAP2 SWAP1 POP JUMP JUMPDEST PUSH32 0x526567697374726174696F6E206973206E6F74206F70656E0000000000000000 PUSH1 0x0 DUP3 ADD MSTORE POP JUMP JUMPDEST PUSH1 0x0 PUSH2 0x122C PUSH1 0x18 DUP4 PUSH2 0x1179 JUMP JUMPDEST SWAP2 POP PUSH2 0x1237 DUP3 PUSH2 0x11F6 JUMP JUMPDEST PUSH1 0x20 DUP3 ADD SWAP1 POP SWAP2 SWAP1 POP JUMP JUMPDEST PUSH1 0x0 PUSH1 0x20 DUP3 ADD SWAP1 POP DUP2 DUP2 SUB PUSH1 0x0 DUP4 ADD MSTORE PUSH2 0x125B DUP2 PUSH2 0x121F JUMP JUMPDEST SWAP1 POP SWAP2 SWAP1 POP JUMP JUMPDEST PUSH1 0x0 PUSH1 0x40 DUP3 ADD SWAP1 POP PUSH2 0x1277 PUSH1 0x0 DUP4 ADD DUP6 PUSH2 0xD50 JUMP JUMPDEST PUSH2 0x1284 PUSH1 0x20 DUP4 ADD DUP5 PUSH2 0xD50 JUMP JUMPDEST SWAP4 SWAP3 POP POP POP JUMP JUMPDEST PUSH32 0x566F74696E67206973206E6F74206F70656E0000000000000000000000000000 PUSH1 0x0 DUP3 ADD MSTORE POP JUMP JUMPDEST PUSH1 0x0 PUSH2 0x12C1 PUSH1 0x12 DUP4 PUSH2 0x1179 JUMP JUMPDEST SWAP2 POP PUSH2 0x12CC DUP3 PUSH2 0x128B JUMP JUMPDEST PUSH1 0x20 DUP3 ADD SWAP1 POP SWAP2 SWAP1 POP JUMP JUMPDEST PUSH1 0x0 PUSH1 0x20 DUP3 ADD SWAP1 POP DUP2 DUP2 SUB PUSH1 0x0 DUP4 ADD MSTORE PUSH2 0x12F0 DUP2 PUSH2 0x12B4 JUMP JUMPDEST SWAP1 POP SWAP2 SWAP1 POP JUMP JUMPDEST PUSH32 0x4964656E746974792068617320616C726561647920766F746564000000000000 PUSH1 0x0 DUP3 ADD MSTORE POP JUMP JUMPDEST PUSH1 0x0 PUSH2 0x132D PUSH1 0x1A DUP4 PUSH2 0x1179 JUMP JUMPDEST SWAP2 POP PUSH2 0x1338 DUP3 PUSH2 0x12F7 JUMP JUMPDEST PUSH1 0x20 DUP3 ADD SWAP1 POP SWAP2 SWAP1 POP JUMP JUMPDEST PUSH1 0x0 PUSH1 0x20 DUP3 ADD SWAP1 POP DUP2 DUP2 SUB PUSH1 0x0 DUP4 ADD MSTORE PUSH2 0x135C DUP2 PUSH2 0x1320 JUMP JUMPDEST SWAP1 POP SWAP2 SWAP1 POP JUMP JUMPDEST PUSH32 0x4E487B7100000000000000000000000000000000000000000000000000000000 PUSH1 0x0 MSTORE PUSH1 0x32 PUSH1 0x4 MSTORE PUSH1 0x24 PUSH1 0x0 REVERT JUMPDEST PUSH1 0x0 PUSH1 0x2 SWAP1 POP SWAP2 SWAP1 POP JUMP JUMPDEST PUSH1 0x0 DUP2 SWAP1 POP SWAP3 SWAP2 POP POP JUMP JUMPDEST PUSH1 0x0 DUP2 SWAP1 POP SWAP2 SWAP1 POP JUMP JUMPDEST PUSH2 0x13BB DUP2 PUSH2 0xC40 JUMP JUMPDEST DUP3 MSTORE POP POP JUMP JUMPDEST PUSH1 0x0 PUSH2 0x13CD DUP4 DUP4 PUSH2 0x13B2 JUMP JUMPDEST PUSH1 0x20 DUP4 ADD SWAP1 POP SWAP3 SWAP2 POP POP JUMP JUMPDEST PUSH1 0x0 PUSH1 0x20 DUP3 ADD SWAP1 POP SWAP2 SWAP1 POP JUMP JUMPDEST PUSH2 0x13EF DUP2 PUSH2 0x1392 JUMP JUMPDEST PUSH2 0x13F9 DUP2 DUP5 PUSH2 0x139D JUMP JUMPDEST SWAP3 POP PUSH2 0x1404 DUP3 PUSH2 0x13A8 JUMP JUMPDEST DUP1 PUSH1 0x0 JUMPDEST DUP4 DUP2 LT ISZERO PUSH2 0x1435 JUMPI DUP2 MLOAD PUSH2 0x141C DUP8 DUP3 PUSH2 0x13C1 JUMP JUMPDEST SWAP7 POP PUSH2 0x1427 DUP4 PUSH2 0x13D9 JUMP JUMPDEST SWAP3 POP POP PUSH1 0x1 DUP2 ADD SWAP1 POP PUSH2 0x1408 JUMP JUMPDEST POP POP POP POP POP POP JUMP JUMPDEST PUSH1 0x0 PUSH1 0x2 SWAP1 POP SWAP2 SWAP1 POP JUMP JUMPDEST PUSH1 0x0 DUP2 SWAP1 POP SWAP3 SWAP2 POP POP JUMP JUMPDEST PUSH1 0x0 DUP2 SWAP1 POP SWAP2 SWAP1 POP JUMP JUMPDEST PUSH1 0x0 DUP2 SWAP1 POP SWAP3 SWAP2 POP POP JUMP JUMPDEST PUSH2 0x1471 DUP2 PUSH2 0x1392 JUMP JUMPDEST PUSH2 0x147B DUP2 DUP5 PUSH2 0x145D JUMP JUMPDEST SWAP3 POP PUSH2 0x1486 DUP3 PUSH2 0x13A8 JUMP JUMPDEST DUP1 PUSH1 0x0 JUMPDEST DUP4 DUP2 LT ISZERO PUSH2 0x14B7 JUMPI DUP2 MLOAD PUSH2 0x149E DUP8 DUP3 PUSH2 0x13C1 JUMP JUMPDEST SWAP7 POP PUSH2 0x14A9 DUP4 PUSH2 0x13D9 JUMP JUMPDEST SWAP3 POP POP PUSH1 0x1 DUP2 ADD SWAP1 POP PUSH2 0x148A JUMP JUMPDEST POP POP POP POP POP POP JUMP JUMPDEST PUSH1 0x0 PUSH2 0x14CB DUP4 DUP4 PUSH2 0x1468 JUMP JUMPDEST PUSH1 0x40 DUP4 ADD SWAP1 POP SWAP3 SWAP2 POP POP JUMP JUMPDEST PUSH1 0x0 PUSH1 0x20 DUP3 ADD SWAP1 POP SWAP2 SWAP1 POP JUMP JUMPDEST PUSH2 0x14ED DUP2 PUSH2 0x143D JUMP JUMPDEST PUSH2 0x14F7 DUP2 DUP5 PUSH2 0x1448 JUMP JUMPDEST SWAP3 POP PUSH2 0x1502 DUP3 PUSH2 0x1453 JUMP JUMPDEST DUP1 PUSH1 0x0 JUMPDEST DUP4 DUP2 LT ISZERO PUSH2 0x1533 JUMPI DUP2 MLOAD PUSH2 0x151A DUP8 DUP3 PUSH2 0x14BF JUMP JUMPDEST SWAP7 POP PUSH2 0x1525 DUP4 PUSH2 0x14D7 JUMP JUMPDEST SWAP3 POP POP PUSH1 0x1 DUP2 ADD SWAP1 POP PUSH2 0x1506 JUMP JUMPDEST POP POP POP POP POP POP JUMP JUMPDEST PUSH1 0x0 PUSH1 0x8 SWAP1 POP SWAP2 SWAP1 POP JUMP JUMPDEST PUSH1 0x0 DUP2 SWAP1 POP SWAP3 SWAP2 POP POP JUMP JUMPDEST PUSH1 0x0 DUP2 SWAP1 POP SWAP2 SWAP1 POP JUMP JUMPDEST PUSH1 0x0 PUSH1 0x20 DUP3 ADD SWAP1 POP SWAP2 SWAP1 POP JUMP JUMPDEST PUSH2 0x1571 DUP2 PUSH2 0x153B JUMP JUMPDEST PUSH2 0x157B DUP2 DUP5 PUSH2 0x1546 JUMP JUMPDEST SWAP3 POP PUSH2 0x1586 DUP3 PUSH2 0x1551 JUMP JUMPDEST DUP1 PUSH1 0x0 JUMPDEST DUP4 DUP2 LT ISZERO PUSH2 0x15B7 JUMPI DUP2 MLOAD PUSH2 0x159E DUP8 DUP3 PUSH2 0x13C1 JUMP JUMPDEST SWAP7 POP PUSH2 0x15A9 DUP4 PUSH2 0x155B JUMP JUMPDEST SWAP3 POP POP PUSH1 0x1 DUP2 ADD SWAP1 POP PUSH2 0x158A JUMP JUMPDEST POP POP POP POP POP POP JUMP JUMPDEST PUSH1 0x0 PUSH2 0x200 DUP3 ADD SWAP1 POP PUSH2 0x15D5 PUSH1 0x0 DUP4 ADD DUP8 PUSH2 0x13E6 JUMP JUMPDEST PUSH2 0x15E2 PUSH1 0x40 DUP4 ADD DUP7 PUSH2 0x14E4 JUMP JUMPDEST PUSH2 0x15EF PUSH1 0xC0 DUP4 ADD DUP6 PUSH2 0x13E6 JUMP JUMPDEST PUSH2 0x15FD PUSH2 0x100 DUP4 ADD DUP5 PUSH2 0x1568 JUMP JUMPDEST SWAP6 SWAP5 POP POP POP POP POP JUMP JUMPDEST PUSH2 0x160F DUP2 PUSH2 0x10FE JUMP JUMPDEST DUP2 EQ PUSH2 0x161A JUMPI PUSH1 0x0 DUP1 REVERT JUMPDEST POP JUMP JUMPDEST PUSH1 0x0 DUP2 MLOAD SWAP1 POP PUSH2 0x162C DUP2 PUSH2 0x1606 JUMP JUMPDEST SWAP3 SWAP2 POP POP JUMP JUMPDEST PUSH1 0x0 PUSH1 0x20 DUP3 DUP5 SUB SLT ISZERO PUSH2 0x1648 JUMPI PUSH2 0x1647 PUSH2 0xC3B JUMP JUMPDEST JUMPDEST PUSH1 0x0 PUSH2 0x1656 DUP5 DUP3 DUP6 ADD PUSH2 0x161D JUMP JUMPDEST SWAP2 POP POP SWAP3 SWAP2 POP POP JUMP JUMPDEST PUSH32 0x496E76616C6964205A65726F2D4B6E6F776C656467652050726F6F6600000000 PUSH1 0x0 DUP3 ADD MSTORE POP JUMP JUMPDEST PUSH1 0x0 PUSH2 0x1695 PUSH1 0x1C DUP4 PUSH2 0x1179 JUMP JUMPDEST SWAP2 POP PUSH2 0x16A0 DUP3 PUSH2 0x165F JUMP JUMPDEST PUSH1 0x20 DUP3 ADD SWAP1 POP SWAP2 SWAP1 POP JUMP JUMPDEST PUSH1 0x0 PUSH1 0x20 DUP3 ADD SWAP1 POP DUP2 DUP2 SUB PUSH1 0x0 DUP4 ADD MSTORE PUSH2 0x16C4 DUP2 PUSH2 0x1688 JUMP JUMPDEST SWAP1 POP SWAP2 SWAP1 POP JUMP JUMPDEST PUSH1 0x0 PUSH1 0xA0 DUP3 ADD SWAP1 POP PUSH2 0x16E0 PUSH1 0x0 DUP4 ADD DUP9 PUSH2 0xD50 JUMP JUMPDEST PUSH2 0x16ED PUSH1 0x20 DUP4 ADD DUP8 PUSH2 0xD50 JUMP JUMPDEST PUSH2 0x16FA PUSH1 0x40 DUP4 ADD DUP7 PUSH2 0xD50 JUMP JUMPDEST PUSH2 0x1707 PUSH1 0x60 DUP4 ADD DUP6 PUSH2 0xD50 JUMP JUMPDEST PUSH2 0x1714 PUSH1 0x80 DUP4 ADD DUP5 PUSH2 0xD50 JUMP JUMPDEST SWAP7 SWAP6 POP POP POP POP POP POP JUMP INVALID LOG2 PUSH5 0x6970667358 0x22 SLT KECCAK256 POP MUL CALLDATALOAD LOG4 SELFBALANCE 0xE1 SWAP16 PUSH10 0xC7E97B6A16D53533DEE9 CALL 0x2D PUSH27 0x6FB8D9B60F8047C80AD39264736F6C634300081B00336080604052 CALLVALUE DUP1 ISZERO PUSH1 0xF JUMPI PUSH1 0x0 DUP1 REVERT JUMPDEST POP PUSH2 0x88C DUP1 PUSH2 0x1F PUSH1 0x0 CODECOPY PUSH1 0x0 RETURN INVALID PUSH1 0x80 PUSH1 0x40 MSTORE CALLVALUE DUP1 ISZERO PUSH2 0x10 JUMPI PUSH1 0x0 DUP1 REVERT JUMPDEST POP PUSH1 0x4 CALLDATASIZE LT PUSH2 0x2B JUMPI PUSH1 0x0 CALLDATALOAD PUSH1 0xE0 SHR DUP1 PUSH4 0xC9219A7A EQ PUSH2 0x30 JUMPI JUMPDEST PUSH1 0x0 DUP1 REVERT JUMPDEST PUSH2 0x4A PUSH1 0x4 DUP1 CALLDATASIZE SUB DUP2 ADD SWAP1 PUSH2 0x45 SWAP2 SWAP1 PUSH2 0x7B7 JUMP JUMPDEST PUSH2 0x60 JUMP JUMPDEST PUSH1 0x40 MLOAD PUSH2 0x57 SWAP2 SWAP1 PUSH2 0x83B JUMP JUMPDEST PUSH1 0x40 MLOAD DUP1 SWAP2 SUB SWAP1 RETURN JUMPDEST PUSH1 0x0 PUSH2 0x6BD JUMP JUMPDEST PUSH32 0x30644E72E131A029B85045B68181585D2833E84879B9709143E1F593F0000001 DUP2 LT PUSH2 0x98 JUMPI PUSH1 0x0 DUP1 MSTORE PUSH1 0x20 PUSH1 0x0 RETURN JUMPDEST POP JUMP JUMPDEST PUSH1 0x0 PUSH1 0x40 MLOAD DUP4 DUP2 MSTORE DUP5 PUSH1 0x20 DUP3 ADD MSTORE DUP6 PUSH1 0x40 DUP3 ADD MSTORE PUSH1 0x40 DUP2 PUSH1 0x60 DUP4 PUSH1 0x7 PUSH2 0x7D0 GAS SUB STATICCALL SWAP2 POP DUP2 PUSH2 0xCE JUMPI PUSH1 0x0 DUP1 MSTORE PUSH1 0x20 PUSH1 0x0 RETURN JUMPDEST DUP3 MLOAD PUSH1 0x40 DUP3 ADD MSTORE PUSH1 0x20 DUP4 ADD MLOAD PUSH1 0x60 DUP3 ADD MSTORE PUSH1 0x40 DUP4 PUSH1 0x80 DUP4 PUSH1 0x6 PUSH2 0x7D0 GAS SUB STATICCALL SWAP2 POP DUP2 PUSH2 0xFE JUMPI PUSH1 0x0 DUP1 MSTORE PUSH1 0x20 PUSH1 0x0 RETURN JUMPDEST POP POP POP POP POP POP JUMP JUMPDEST PUSH1 0x0 PUSH1 0x80 DUP7 ADD PUSH1 0x0 DUP8 ADD PUSH32 0x628C1ACB42AFFBA00ECAF566A402DA81095F5AF6E80D5A25A7DB1E4C7B31AC5 DUP2 MSTORE PUSH32 0x27EC8329BE8922E6BAB2423B1025D578BC33D2943C9729CF7BC27ABE8AD9E80F PUSH1 0x20 DUP3 ADD MSTORE PUSH2 0x1A9 PUSH1 0x0 DUP9 ADD CALLDATALOAD PUSH32 0x2988597B51B945288A066EFD7D80604B5D9DCDEB3669D79941F1269C001BDC9E PUSH32 0x23EB87965140A7F131A19D2DF59A2C616F6DD45776B8C22E8BD917CBBBAE891C DUP5 PUSH2 0x9B JUMP JUMPDEST PUSH2 0x1F9 PUSH1 0x20 DUP9 ADD CALLDATALOAD PUSH32 0x1E1A278313C6ECE240E1CCFB22E0DA31CAEA192B56AE2DF869329EBB5251800E PUSH32 0x1B2948C34357EE3E5CA6BF0C428DE77149318EC03B250207DF3531B5DFBC74F7 DUP5 PUSH2 0x9B JUMP JUMPDEST PUSH2 0x249 PUSH1 0x40 DUP9 ADD CALLDATALOAD PUSH32 0x19FFC0F89385F0F8C7564EAE1176763C516105565AC3CA672AE1FFEC8C16C2FD PUSH32 0x88DF57AD9B2AB13652EB35218B85E8E461FEB8A8A844844E8EC060C3C89E8E2 DUP5 PUSH2 0x9B JUMP JUMPDEST PUSH2 0x299 PUSH1 0x60 DUP9 ADD CALLDATALOAD PUSH32 0x216834AADE83C94CFFECC76CC6F071805F5BB7775A67C6296A343724AB173702 PUSH32 0x2194AD4896123E9A2419335AE51DEE08EA9F029805FDC57FEC47565540B59EBE DUP5 PUSH2 0x9B JUMP JUMPDEST PUSH2 0x2E9 PUSH1 0x80 DUP9 ADD CALLDATALOAD PUSH32 0x2723E57EFF5050B0562E8BCC1BF5540955A98ED5F67039A7B1326E06B25F1327 PUSH32 0x150FDC13BC96F841BCD672E0FA5ED63F9E490EDFF94E56886D386E08505834E0 DUP5 PUSH2 0x9B JUMP JUMPDEST PUSH2 0x339 PUSH1 0xA0 DUP9 ADD CALLDATALOAD PUSH32 0x1B057723C461304D22F93FA05E6675C52F449666EA71FD06E9EE2FA0C89C240E PUSH32 0x2C55E88B29F0681ADB6157C98339C34187AB14B780C654DE158EC5E3FFD3B9B6 DUP5 PUSH2 0x9B JUMP JUMPDEST PUSH2 0x389 PUSH1 0xC0 DUP9 ADD CALLDATALOAD PUSH32 0x236BA32123D12D6AAA78D40D955AF7C3B17A2009AF32127D21E07D3FE0E00D14 PUSH32 0x1D3E253F35C76381F0F6B5C3EF1F0CCE51D3C90FD90BB2A28707FD90222B7758 DUP5 PUSH2 0x9B JUMP JUMPDEST PUSH2 0x3D9 PUSH1 0xE0 DUP9 ADD CALLDATALOAD PUSH32 0x1B51CE3E4ACD7B3E7256C2546A7890A37ABAE07B732322655932680806780F35 PUSH32 0x1E0D3B104A5BA15A54D495B952D9025A42619833CF625D2FFA289E9780CE4963 DUP5 PUSH2 0x9B JUMP JUMPDEST DUP4 CALLDATALOAD DUP3 MSTORE PUSH32 0x30644E72E131A029B85045B68181585D97816A916871CA8D3C208C16D87CFD47 PUSH1 0x20 DUP6 ADD CALLDATALOAD PUSH32 0x30644E72E131A029B85045B68181585D97816A916871CA8D3C208C16D87CFD47 SUB MOD PUSH1 0x20 DUP4 ADD MSTORE DUP5 CALLDATALOAD PUSH1 0x40 DUP4 ADD MSTORE PUSH1 0x20 DUP6 ADD CALLDATALOAD PUSH1 0x60 DUP4 ADD MSTORE PUSH1 0x40 DUP6 ADD CALLDATALOAD PUSH1 0x80 DUP4 ADD MSTORE PUSH1 0x60 DUP6 ADD CALLDATALOAD PUSH1 0xA0 DUP4 ADD MSTORE PUSH32 0x2A27E58CD7C98CB7D495E427200600997054AD256AFF31CC7E84B5FB7D266D82 PUSH1 0xC0 DUP4 ADD MSTORE PUSH32 0x1CBB48C1F1A8C083E1B14B59DADAF9D26C729021304706AEB5CA377246791FEC PUSH1 0xE0 DUP4 ADD MSTORE PUSH32 0x8E095AFE022F068436E96ADAEDB3D30568F6F8958D48163EC8B7335224BD7A0 PUSH2 0x100 DUP4 ADD MSTORE PUSH32 0x1E38625D639F503C00D451FD05E0445547059EAF4014C8AB6F4A74DB42A460F8 PUSH2 0x120 DUP4 ADD MSTORE PUSH32 0x1A5903A0EB275BC14E69A23FC53DC40290E6F6BBCF746B7EFABAC869FEA1916B PUSH2 0x140 DUP4 ADD MSTORE PUSH32 0x2F094998158BFEEA1E8F92BE2BA6FF27EDCC7BA8EFF94CCCFDD902C55D54B708 PUSH2 0x160 DUP4 ADD MSTORE PUSH1 0x0 DUP9 ADD MLOAD PUSH2 0x180 DUP4 ADD MSTORE PUSH1 0x20 PUSH1 0x0 ADD DUP9 ADD MLOAD PUSH2 0x1A0 DUP4 ADD MSTORE PUSH32 0x198E9393920D483A7260BFB731FB5D25F1AA493335A9E71297E485B7AEF312C2 PUSH2 0x1C0 DUP4 ADD MSTORE PUSH32 0x1800DEEF121F1E76426A00665E5C4479674322D4F75EDADD46DEBD5CD992F6ED PUSH2 0x1E0 DUP4 ADD MSTORE PUSH32 0x90689D0585FF075EC9E99AD690C3395BC4B313370B38EF355ACDADCD122975B PUSH2 0x200 DUP4 ADD MSTORE PUSH32 0x12C85EA5DB8C6DEB4AAB71808DCB408FE3D1E7690C43D37B4CE6CC0166FA7DAA PUSH2 0x220 DUP4 ADD MSTORE DUP6 CALLDATALOAD PUSH2 0x240 DUP4 ADD MSTORE PUSH1 0x20 DUP7 ADD CALLDATALOAD PUSH2 0x260 DUP4 ADD MSTORE PUSH32 0x2A2FCF2621F5C66184A154FC86A4A68A075C54D94D6C2CF59C411D0E23FC2909 PUSH2 0x280 DUP4 ADD MSTORE PUSH32 0x13DE24F7CC2625439DB43E6D258E7FEBB897F3195A6B80EECC75E5D83907C3ED PUSH2 0x2A0 DUP4 ADD MSTORE PUSH32 0x27D26717CA8A7F553C464006B1E9EAFA2E4C0474116A44854C0A6C311C6FF74F PUSH2 0x2C0 DUP4 ADD MSTORE PUSH32 0x1AF963CDFF434547E70C9D9D1D702646BF4B160F82C4EC6E28B4D1E1A05C6EF PUSH2 0x2E0 DUP4 ADD MSTORE PUSH1 0x20 DUP3 PUSH2 0x300 DUP5 PUSH1 0x8 PUSH2 0x7D0 GAS SUB STATICCALL DUP3 MLOAD DUP2 AND SWAP4 POP POP POP POP SWAP6 SWAP5 POP POP POP POP POP JUMP JUMPDEST PUSH1 0x40 MLOAD PUSH2 0x380 DUP2 ADD PUSH1 0x40 MSTORE PUSH2 0x6D5 PUSH1 0x0 DUP5 ADD CALLDATALOAD PUSH2 0x67 JUMP JUMPDEST PUSH2 0x6E2 PUSH1 0x20 DUP5 ADD CALLDATALOAD PUSH2 0x67 JUMP JUMPDEST PUSH2 0x6EF PUSH1 0x40 DUP5 ADD CALLDATALOAD PUSH2 0x67 JUMP JUMPDEST PUSH2 0x6FC PUSH1 0x60 DUP5 ADD CALLDATALOAD PUSH2 0x67 JUMP JUMPDEST PUSH2 0x709 PUSH1 0x80 DUP5 ADD CALLDATALOAD PUSH2 0x67 JUMP JUMPDEST PUSH2 0x716 PUSH1 0xA0 DUP5 ADD CALLDATALOAD PUSH2 0x67 JUMP JUMPDEST PUSH2 0x723 PUSH1 0xC0 DUP5 ADD CALLDATALOAD PUSH2 0x67 JUMP JUMPDEST PUSH2 0x730 PUSH1 0xE0 DUP5 ADD CALLDATALOAD PUSH2 0x67 JUMP JUMPDEST PUSH2 0x73D DUP2 DUP5 DUP7 DUP9 DUP11 PUSH2 0x106 JUMP JUMPDEST DUP1 PUSH1 0x0 MSTORE PUSH1 0x20 PUSH1 0x0 RETURN JUMPDEST PUSH1 0x0 DUP1 REVERT JUMPDEST PUSH1 0x0 DUP1 REVERT JUMPDEST PUSH1 0x0 DUP2 SWAP1 POP DUP3 PUSH1 0x20 PUSH1 0x2 MUL DUP3 ADD GT ISZERO PUSH2 0x76D JUMPI PUSH2 0x76C PUSH2 0x74C JUMP JUMPDEST JUMPDEST SWAP3 SWAP2 POP POP JUMP JUMPDEST PUSH1 0x0 DUP2 SWAP1 POP DUP3 PUSH1 0x40 PUSH1 0x2 MUL DUP3 ADD GT ISZERO PUSH2 0x78F JUMPI PUSH2 0x78E PUSH2 0x74C JUMP JUMPDEST JUMPDEST SWAP3 SWAP2 POP POP JUMP JUMPDEST PUSH1 0x0 DUP2 SWAP1 POP DUP3 PUSH1 0x20 PUSH1 0x8 MUL DUP3 ADD GT ISZERO PUSH2 0x7B1 JUMPI PUSH2 0x7B0 PUSH2 0x74C JUMP JUMPDEST JUMPDEST SWAP3 SWAP2 POP POP JUMP JUMPDEST PUSH1 0x0 DUP1 PUSH1 0x0 DUP1 PUSH2 0x200 DUP6 DUP8 SUB SLT ISZERO PUSH2 0x7D2 JUMPI PUSH2 0x7D1 PUSH2 0x747 JUMP JUMPDEST JUMPDEST PUSH1 0x0 PUSH2 0x7E0 DUP8 DUP3 DUP9 ADD PUSH2 0x751 JUMP JUMPDEST SWAP5 POP POP PUSH1 0x40 PUSH2 0x7F1 DUP8 DUP3 DUP9 ADD PUSH2 0x773 JUMP JUMPDEST SWAP4 POP POP PUSH1 0xC0 PUSH2 0x802 DUP8 DUP3 DUP9 ADD PUSH2 0x751 JUMP JUMPDEST SWAP3 POP POP PUSH2 0x100 PUSH2 0x814 DUP8 DUP3 DUP9 ADD PUSH2 0x795 JUMP JUMPDEST SWAP2 POP POP SWAP3 SWAP6 SWAP2 SWAP5 POP SWAP3 POP JUMP JUMPDEST PUSH1 0x0 DUP2 ISZERO ISZERO SWAP1 POP SWAP2 SWAP1 POP JUMP JUMPDEST PUSH2 0x835 DUP2 PUSH2 0x820 JUMP JUMPDEST DUP3 MSTORE POP POP JUMP JUMPDEST PUSH1 0x0 PUSH1 0x20 DUP3 ADD SWAP1 POP PUSH2 0x850 PUSH1 0x0 DUP4 ADD DUP5 PUSH2 0x82C JUMP JUMPDEST SWAP3 SWAP2 POP POP JUMP INVALID LOG2 PUSH5 0x6970667358 0x22 SLT KECCAK256 MOD SWAP8 0xF9 MSTORE MSTORE8 0x4D 0x27 CALLDATACOPY 0xE1 0xB8 PUSH3 0x205A28 BALANCE 0xE1 0xCD PUSH18 0xA72091F4FC6E16A40F8E714B8AED64736F6C PUSH4 0x4300081B STOP CALLER "},"methodIdentifiers":{"addVoter(uint256,uint256)":"0a120bb0","closeElection()":"6c6c32d0","electionPublicKey(uint256)":"86fc6442","electionRootSnapshot()":"79805281","encryptedVotes(uint256)":"fde315bd","getEncryptedVotesCount()":"c521e023","nullifiers(uint256)":"d21e82ab","owner()":"8da5cb5b","startVoting()":"1ec6b60a","state()":"c19d93fb","verifier()":"2b7ac3f3","verifyAndCast(uint256[2],uint256[2][2],uint256[2],uint256,uint256[2],uint256[2])":"9b3e18f1"}}}}}