{"contracts/Verifier.sol":{"Groth16Verifier":{"abi":[{"inputs":[{"internalType":"uint256[2]","name":"_pA","type":"uint256[2]"},{"internalType":"uint256[2][2]","name":"_pB","type":"uint256[2][2]"},{"internalType":"uint256[2]","name":"_pC","type":"uint256[2]"},{"internalType":"uint256[8]","name":"_pubSignals","type":"uint256[8]"}],"name":"verifyProof","outputs":[{"internalType":"bool","name":"","type":"bool"}],"stateMutability":"view","type":"function"}],"evm":{"bytecode":{"linkReferences":{},"object":"6080604052348015600f57600080fd5b5061088c8061001f6000396000f3fe608060405234801561001057600080fd5b506004361061002b5760003560e01c8063c9219a7a14610030575b600080fd5b61004a600480360381019061004591906107b7565b610060565b604051610057919061083b565b60405180910390f35b60006106bd565b7f30644e72e131a029b85045b68181585d2833e84879b9709143e1f593f00000018110610098576000805260206000f35b50565b600060405183815284602082015285604082015260408160608360076107d05a03fa9150816100ce576000805260206000f35b825160408201526020830151606082015260408360808360066107d05a03fa9150816100fe576000805260206000f35b505050505050565b600060808601600087017f0628c1acb42affba00ecaf566a402da81095f5af6e80d5a25a7db1e4c7b31ac581527f27ec8329be8922e6bab2423b1025d578bc33d2943c9729cf7bc27abe8ad9e80f60208201526101a960008801357f2988597b51b945288a066efd7d80604b5d9dcdeb3669d79941f1269c001bdc9e7f23eb87965140a7f131a19d2df59a2c616f6dd45776b8c22e8bd917cbbbae891c8461009b565b6101f960208801357f1e1a278313c6ece240e1ccfb22e0da31caea192b56ae2df869329ebb5251800e7f1b2948c34357ee3e5ca6bf0c428de77149318ec03b250207df3531b5dfbc74f78461009b565b61024960408801357f19ffc0f89385f0f8c7564eae1176763c516105565ac3ca672ae1ffec8c16c2fd7f088df57ad9b2ab13652eb35218b85e8e461feb8a8a844844e8ec060c3c89e8e28461009b565b61029960608801357f216834aade83c94cffecc76cc6f071805f5bb7775a67c6296a343724ab1737027f2194ad4896123e9a2419335ae51dee08ea9f029805fdc57fec47565540b59ebe8461009b565b6102e960808801357f2723e57eff5050b0562e8bcc1bf5540955a98ed5f67039a7b1326e06b25f13277f150fdc13bc96f841bcd672e0fa5ed63f9e490edff94e56886d386e08505834e08461009b565b61033960a08801357f1b057723c461304d22f93fa05e6675c52f449666ea71fd06e9ee2fa0c89c240e7f2c55e88b29f0681adb6157c98339c34187ab14b780c654de158ec5e3ffd3b9b68461009b565b61038960c08801357f236ba32123d12d6aaa78d40d955af7c3b17a2009af32127d21e07d3fe0e00d147f1d3e253f35c76381f0f6b5c3ef1f0cce51d3c90fd90bb2a28707fd90222b77588461009b565b6103d960e08801357f1b51ce3e4acd7b3e7256c2546a7890a37abae07b732322655932680806780f357f1e0d3b104a5ba15a54d495b952d9025a42619833cf625d2ffa289e9780ce49638461009b565b833582527f30644e72e131a029b85045b68181585d97816a916871ca8d3c208c16d87cfd4760208501357f30644e72e131a029b85045b68181585d97816a916871ca8d3c208c16d87cfd4703066020830152843560408301526020850135606083015260408501356080830152606085013560a08301527f2a27e58cd7c98cb7d495e427200600997054ad256aff31cc7e84b5fb7d266d8260c08301527f1cbb48c1f1a8c083e1b14b59dadaf9d26c729021304706aeb5ca377246791fec60e08301527f08e095afe022f068436e96adaedb3d30568f6f8958d48163ec8b7335224bd7a06101008301527f1e38625d639f503c00d451fd05e0445547059eaf4014c8ab6f4a74db42a460f86101208301527f1a5903a0eb275bc14e69a23fc53dc40290e6f6bbcf746b7efabac869fea1916b6101408301527f2f094998158bfeea1e8f92be2ba6ff27edcc7ba8eff94cccfdd902c55d54b708610160830152600088015161018083015260206000018801516101a08301527f198e9393920d483a7260bfb731fb5d25f1aa493335a9e71297e485b7aef312c26101c08301527f1800deef121f1e76426a00665e5c4479674322d4f75edadd46debd5cd992f6ed6101e08301527f090689d0585ff075ec9e99ad690c3395bc4b313370b38ef355acdadcd122975b6102008301527f12c85ea5db8c6deb4aab71808dcb408fe3d1e7690c43d37b4ce6cc0166fa7daa610220830152853561024083015260208601356102608301527f2a2fcf2621f5c66184a154fc86a4a68a075c54d94d6c2cf59c411d0e23fc29096102808301527f13de24f7cc2625439db43e6d258e7febb897f3195a6b80eecc75e5d83907c3ed6102a08301527f27d26717ca8a7f553c464006b1e9eafa2e4c0474116a44854c0a6c311c6ff74f6102c08301527f01af963cdff434547e70c9d9d1d702646bf4b160f82c4ec6e28b4d1e1a05c6ef6102e08301526020826103008460086107d05a03fa82518116935050505095945050505050565b60405161038081016040526106d56000840135610067565b6106e26020840135610067565b6106ef6040840135610067565b6106fc6060840135610067565b6107096080840135610067565b61071660a0840135610067565b61072360c0840135610067565b61073060e0840135610067565b61073d818486888a610106565b8060005260206000f35b600080fd5b600080fd5b60008190508260206002028201111561076d5761076c61074c565b5b92915050565b60008190508260406002028201111561078f5761078e61074c565b5b92915050565b6000819050826020600802820111156107b1576107b061074c565b5b92915050565b60008060008061020085870312156107d2576107d1610747565b5b60006107e087828801610751565b94505060406107f187828801610773565b93505060c061080287828801610751565b92505061010061081487828801610795565b91505092959194509250565b60008115159050919050565b61083581610820565b82525050565b6000602082019050610850600083018461082c565b9291505056fea26469706673582212200697f952534d2737e1b862205a2831e1cd71a72091f4fc6e16a40f8e714b8aed64736f6c634300081b0033","opcodes":"PUSH1 0x80 PUSH1 0x40 MSTORE CALLVALUE DUP1 ISZERO PUSH1 0xF JUMPI PUSH1 0x0 DUP1 REVERT JUMPDEST POP PUSH2 0x88C DUP1 PUSH2 0x1F PUSH1 0x0 CODECOPY PUSH1 0x0 RETURN INVALID PUSH1 0x80 PUSH1 0x40 MSTORE CALLVALUE DUP1 ISZERO PUSH2 0x10 JUMPI PUSH1 0x0 DUP1 REVERT JUMPDEST POP PUSH1 0x4 CALLDATASIZE LT PUSH2 0x2B JUMPI PUSH1 0x0 CALLDATALOAD PUSH1 0xE0 SHR DUP1 PUSH4 0xC9219A7A EQ PUSH2 0x30 JUMPI JUMPDEST PUSH1 0x0 DUP1 REVERT JUMPDEST PUSH2 0x4A PUSH1 0x4 DUP1 CALLDATASIZE SUB DUP2 ADD SWAP1 PUSH2 0x45 SWAP2 SWAP1 PUSH2 0x7B7 JUMP JUMPDEST PUSH2 0x60 JUMP JUMPDEST PUSH1 0x40 MLOAD PUSH2 0x57 SWAP2 SWAP1 PUSH2 0x83B JUMP JUMPDEST PUSH1 0x40 MLOAD DUP1 SWAP2 SUB SWAP1 RETURN JUMPDEST PUSH1 0x0 PUSH2 0x6BD JUMP JUMPDEST PUSH32 0x30644E72E131A029B85045B68181585D2833E84879B9709143E1F593F0000001 DUP2 LT PUSH2 0x98 JUMPI PUSH1 0x0 DUP1 MSTORE PUSH1 0x20 PUSH1 0x0 RETURN JUMPDEST POP JUMP JUMPDEST PUSH1 0x0 PUSH1 0x40 MLOAD DUP4 DUP2 MSTORE DUP5 PUSH1 0x20 DUP3 ADD MSTORE DUP6 PUSH1 0x40 DUP3 ADD MSTORE PUSH1 0x40 DUP2 PUSH1 0x60 DUP4 PUSH1 0x7 PUSH2 0x7D0 GAS SUB STATICCALL SWAP2 POP DUP2 PUSH2 0xCE JUMPI PUSH1 0x0 DUP1 MSTORE PUSH1 0x20 PUSH1 0x0 RETURN JUMPDEST DUP3 MLOAD PUSH1 0x40 DUP3 ADD MSTORE PUSH1 0x20 DUP4 ADD MLOAD PUSH1 0x60 DUP3 ADD MSTORE PUSH1 0x40 DUP4 PUSH1 0x80 DUP4 PUSH1 0x6 PUSH2 0x7D0 GAS SUB STATICCALL SWAP2 POP DUP2 PUSH2 0xFE JUMPI PUSH1 0x0 DUP1 MSTORE PUSH1 0x20 PUSH1 0x0 RETURN JUMPDEST POP POP POP POP POP POP JUMP JUMPDEST PUSH1 0x0 PUSH1 0x80 DUP7 ADD PUSH1 0x0 DUP8 ADD PUSH32 0x628C1ACB42AFFBA00ECAF566A402DA81095F5AF6E80D5A25A7DB1E4C7B31AC5 DUP2 MSTORE PUSH32 0x27EC8329BE8922E6BAB2423B1025D578BC33D2943C9729CF7BC27ABE8AD9E80F PUSH1 0x20 DUP3 ADD MSTORE PUSH2 0x1A9 PUSH1 0x0 DUP9 ADD CALLDATALOAD PUSH32 0x2988597B51B945288A066EFD7D80604B5D9DCDEB3669D79941F1269C001BDC9E PUSH32 0x23EB87965140A7F131A19D2DF59A2C616F6DD45776B8C22E8BD917CBBBAE891C DUP5 PUSH2 0x9B JUMP JUMPDEST PUSH2 0x1F9 PUSH1 0x20 DUP9 ADD CALLDATALOAD PUSH32 0x1E1A278313C6ECE240E1CCFB22E0DA31CAEA192B56AE2DF869329EBB5251800E PUSH32 0x1B2948C34357EE3E5CA6BF0C428DE77149318EC03B250207DF3531B5DFBC74F7 DUP5 PUSH2 0x9B JUMP JUMPDEST PUSH2 0x249 PUSH1 0x40 DUP9 ADD CALLDATALOAD PUSH32 0x19FFC0F89385F0F8C7564EAE1176763C516105565AC3CA672AE1FFEC8C16C2FD PUSH32 0x88DF57AD9B2AB13652EB35218B85E8E461FEB8A8A844844E8EC060C3C89E8E2 DUP5 PUSH2 0x9B JUMP JUMPDEST PUSH2 0x299 PUSH1 0x60 DUP9 ADD CALLDATALOAD PUSH32 0x216834AADE83C94CFFECC76CC6F071805F5BB7775A67C6296A343724AB173702 PUSH32 0x2194AD4896123E9A2419335AE51DEE08EA9F029805FDC57FEC47565540B59EBE DUP5 PUSH2 0x9B JUMP JUMPDEST PUSH2 0x2E9 PUSH1 0x80 DUP9 ADD CALLDATALOAD PUSH32 0x2723E57EFF5050B0562E8BCC1BF5540955A98ED5F67039A7B1326E06B25F1327 PUSH32 0x150FDC13BC96F841BCD672E0FA5ED63F9E490EDFF94E56886D386E08505834E0 DUP5 PUSH2 0x9B JUMP JUMPDEST PUSH2 0x339 PUSH1 0xA0 DUP9 ADD CALLDATALOAD PUSH32 0x1B057723C461304D22F93FA05E6675C52F449666EA71FD06E9EE2FA0C89C240E PUSH32 0x2C55E88B29F0681ADB6157C98339C34187AB14B780C654DE158EC5E3FFD3B9B6 DUP5 PUSH2 0x9B JUMP JUMPDEST PUSH2 0x389 PUSH1 0xC0 DUP9 ADD CALLDATALOAD PUSH32 0x236BA32123D12D6AAA78D40D955AF7C3B17A2009AF32127D21E07D3FE0E00D14 PUSH32 0x1D3E253F35C76381F0F6B5C3EF1F0CCE51D3C90FD90BB2A28707FD90222B7758 DUP5 PUSH2 0x9B JUMP JUMPDEST PUSH2 0x3D9 PUSH1 0xE0 DUP9 ADD CALLDATALOAD PUSH32 0x1B51CE3E4ACD7B3E7256C2546A7890A37ABAE07B732322655932680806780F35 PUSH32 0x1E0D3B104A5BA15A54D495B952D9025A42619833CF625D2FFA289E9780CE4963 DUP5 PUSH2 0x9B JUMP JUMPDEST DUP4 CALLDATALOAD DUP3 MSTORE PUSH32 0x30644E72E131A029B85045B68181585D97816A916871CA8D3C208C16D87CFD47 PUSH1 0x20 DUP6 ADD CALLDATALOAD PUSH32 0x30644E72E131A029B85045B68181585D97816A916871CA8D3C208C16D87CFD47 SUB MOD PUSH1 0x20 DUP4 ADD MSTORE DUP5 CALLDATALOAD PUSH1 0x40 DUP4 ADD MSTORE PUSH1 0x20 DUP6 ADD CALLDATALOAD PUSH1 0x60 DUP4 ADD MSTORE PUSH1 0x40 DUP6 ADD CALLDATALOAD PUSH1 0x80 DUP4 ADD MSTORE PUSH1 0x60 DUP6 ADD CALLDATALOAD PUSH1 0xA0 DUP4 ADD MSTORE PUSH32 0x2A27E58CD7C98CB7D495E427200600997054AD256AFF31CC7E84B5FB7D266D82 PUSH1 0xC0 DUP4 ADD MSTORE PUSH32 0x1CBB48C1F1A8C083E1B14B59DADAF9D26C729021304706AEB5CA377246791FEC PUSH1 0xE0 DUP4 ADD MSTORE PUSH32 0x8E095AFE022F068436E96ADAEDB3D30568F6F8958D48163EC8B7335224BD7A0 PUSH2 0x100 DUP4 ADD MSTORE PUSH32 0x1E38625D639F503C00D451FD05E0445547059EAF4014C8AB6F4A74DB42A460F8 PUSH2 0x120 DUP4 ADD MSTORE PUSH32 0x1A5903A0EB275BC14E69A23FC53DC40290E6F6BBCF746B7EFABAC869FEA1916B PUSH2 0x140 DUP4 ADD MSTORE PUSH32 0x2F094998158BFEEA1E8F92BE2BA6FF27EDCC7BA8EFF94CCCFDD902C55D54B708 PUSH2 0x160 DUP4 ADD MSTORE PUSH1 0x0 DUP9 ADD MLOAD PUSH2 0x180 DUP4 ADD MSTORE PUSH1 0x20 PUSH1 0x0 ADD DUP9 ADD MLOAD PUSH2 0x1A0 DUP4 ADD MSTORE PUSH32 0x198E9393920D483A7260BFB731FB5D25F1AA493335A9E71297E485B7AEF312C2 PUSH2 0x1C0 DUP4 ADD MSTORE PUSH32 0x1800DEEF121F1E76426A00665E5C4479674322D4F75EDADD46DEBD5CD992F6ED PUSH2 0x1E0 DUP4 ADD MSTORE PUSH32 0x90689D0585FF075EC9E99AD690C3395BC4B313370B38EF355ACDADCD122975B PUSH2 0x200 DUP4 ADD MSTORE PUSH32 0x12C85EA5DB8C6DEB4AAB71808DCB408FE3D1E7690C43D37B4CE6CC0166FA7DAA PUSH2 0x220 DUP4 ADD MSTORE DUP6 CALLDATALOAD PUSH2 0x240 DUP4 ADD MSTORE PUSH1 0x20 DUP7 ADD CALLDATALOAD PUSH2 0x260 DUP4 ADD MSTORE PUSH32 0x2A2FCF2621F5C66184A154FC86A4A68A075C54D94D6C2CF59C411D0E23FC2909 PUSH2 0x280 DUP4 ADD MSTORE PUSH32 0x13DE24F7CC2625439DB43E6D258E7FEBB897F3195A6B80EECC75E5D83907C3ED PUSH2 0x2A0 DUP4 ADD MSTORE PUSH32 0x27D26717CA8A7F553C464006B1E9EAFA2E4C0474116A44854C0A6C311C6FF74F PUSH2 0x2C0 DUP4 ADD MSTORE PUSH32 0x1AF963CDFF434547E70C9D9D1D702646BF4B160F82C4EC6E28B4D1E1A05C6EF PUSH2 0x2E0 DUP4 ADD MSTORE PUSH1 0x20 DUP3 PUSH2 0x300 DUP5 PUSH1 0x8 PUSH2 0x7D0 GAS SUB STATICCALL DUP3 MLOAD DUP2 AND SWAP4 POP POP POP POP SWAP6 SWAP5 POP POP POP POP POP JUMP JUMPDEST PUSH1 0x40 MLOAD PUSH2 0x380 DUP2 ADD PUSH1 0x40 MSTORE PUSH2 0x6D5 PUSH1 0x0 DUP5 ADD CALLDATALOAD PUSH2 0x67 JUMP JUMPDEST PUSH2 0x6E2 PUSH1 0x20 DUP5 ADD CALLDATALOAD PUSH2 0x67 JUMP JUMPDEST PUSH2 0x6EF PUSH1 0x40 DUP5 ADD CALLDATALOAD PUSH2 0x67 JUMP JUMPDEST PUSH2 0x6FC PUSH1 0x60 DUP5 ADD CALLDATALOAD PUSH2 0x67 JUMP JUMPDEST PUSH2 0x709 PUSH1 0x80 DUP5 ADD CALLDATALOAD PUSH2 0x67 JUMP JUMPDEST PUSH2 0x716 PUSH1 0xA0 DUP5 ADD CALLDATALOAD PUSH2 0x67 JUMP JUMPDEST PUSH2 0x723 PUSH1 0xC0 DUP5 ADD CALLDATALOAD PUSH2 0x67 JUMP JUMPDEST PUSH2 0x730 PUSH1 0xE0 DUP5 ADD CALLDATALOAD PUSH2 0x67 JUMP JUMPDEST PUSH2 0x73D DUP2 DUP5 DUP7 DUP9 DUP11 PUSH2 0x106 JUMP JUMPDEST DUP1 PUSH1 0x0 MSTORE PUSH1 0x20 PUSH1 0x0 RETURN JUMPDEST PUSH1 0x0 DUP1 REVERT JUMPDEST PUSH1 0x0 DUP1 REVERT JUMPDEST PUSH1 0x0 DUP2 SWAP1 POP DUP3 PUSH1 0x20 PUSH1 0x2 MUL DUP3 ADD GT ISZERO PUSH2 0x76D JUMPI PUSH2 0x76C PUSH2 0x74C JUMP JUMPDEST JUMPDEST SWAP3 SWAP2 POP POP JUMP JUMPDEST PUSH1 0x0 DUP2 SWAP1 POP DUP3 PUSH1 0x40 PUSH1 0x2 MUL DUP3 ADD GT ISZERO PUSH2 0x78F JUMPI PUSH2 0x78E PUSH2 0x74C JUMP JUMPDEST JUMPDEST SWAP3 SWAP2 POP POP JUMP JUMPDEST PUSH1 0x0 DUP2 SWAP1 POP DUP3 PUSH1 0x20 PUSH1 0x8 MUL DUP3 ADD GT ISZERO PUSH2 0x7B1 JUMPI PUSH2 0x7B0 PUSH2 0x74C JUMP JUMPDEST JUMPDEST SWAP3 SWAP2 POP POP JUMP JUMPDEST PUSH1 0x0 DUP1 PUSH1 0x0 DUP1 PUSH2 0x200 DUP6 DUP8 SUB SLT ISZERO PUSH2 0x7D2 JUMPI PUSH2 0x7D1 PUSH2 0x747 JUMP JUMPDEST JUMPDEST PUSH1 0x0 PUSH2 0x7E0 DUP8 DUP3 DUP9 ADD PUSH2 0x751 JUMP JUMPDEST SWAP5 POP POP PUSH1 0x40 PUSH2 0x7F1 DUP8 DUP3 DUP9 ADD PUSH2 0x773 JUMP JUMPDEST SWAP4 POP POP PUSH1 0xC0 PUSH2 0x802 DUP8 DUP3 DUP9 ADD PUSH2 0x751 JUMP JUMPDEST SWAP3 POP POP PUSH2 0x100 PUSH2 0x814 DUP8 DUP3 DUP9 ADD PUSH2 0x795 JUMP JUMPDEST SWAP2 POP POP SWAP3 SWAP6 SWAP2 SWAP5 POP SWAP3 POP JUMP JUMPDEST PUSH1 0x0 DUP2 ISZERO ISZERO SWAP1 POP SWAP2 SWAP1 POP JUMP JUMPDEST PUSH2 0x835 DUP2 PUSH2 0x820 JUMP JUMPDEST DUP3 MSTORE POP POP JUMP JUMPDEST PUSH1 0x0 PUSH1 0x20 DUP3 ADD SWAP1 POP PUSH2 0x850 PUSH1 0x0 DUP4 ADD DUP5 PUSH2 0x82C JUMP JUMPDEST SWAP3 SWAP2 POP POP JUMP INVALID LOG2 PUSH5 0x6970667358 0x22 SLT KECCAK256 MOD SWAP8 0xF9 MSTORE MSTORE8 0x4D 0x27 CALLDATACOPY 0xE1 0xB8 PUSH3 0x205A28 BALANCE 0xE1 0xCD PUSH18 0xA72091F4FC6E16A40F8E714B8AED64736F6C PUSH4 0x4300081B STOP CALLER "},"methodIdentifiers":{"verifyProof(uint256[2],uint256[2][2],uint256[2],uint256[8])":"c9219a7a"}}}}}