{
  "_format": "hh-sol-artifact-1",
  "contractName": "AntigravityBallot",
  "sourceName": "contracts/AntigravityBallot.sol",
  "abi": [
    {
      "inputs": [
        {
          "internalType": "uint256[2]",
          "name": "_electionPublicKey",
          "type": "uint256[2]"
        }
      ],
      "stateMutability": "nonpayable",
      "type": "constructor"
    },
    {
      "anonymous": false,
      "inputs": [],
      "name": "ElectionClosed",
      "type": "event"
    },
    {
      "anonymous": false,
      "inputs": [
        {
          "indexed": false,
          "internalType": "uint256",
          "name": "snapshotRoot",
          "type": "uint256"
        },
        {
          "indexed": false,
          "internalType": "uint256",
          "name": "blockNumber",
          "type": "uint256"
        }
      ],
      "name": "ElectionStarted",
      "type": "event"
    },
    {
      "anonymous": false,
      "inputs": [
        {
          "indexed": false,
          "internalType": "uint256",
          "name": "nullifierHash",
          "type": "uint256"
        },
        {
          "indexed": false,
          "internalType": "uint256",
          "name": "c1_x",
          "type": "uint256"
        },
        {
          "indexed": false,
          "internalType": "uint256",
          "name": "c1_y",
          "type": "uint256"
        },
        {
          "indexed": false,
          "internalType": "uint256",
          "name": "c2_x",
          "type": "uint256"
        },
        {
          "indexed": false,
          "internalType": "uint256",
          "name": "c2_y",
          "type": "uint256"
        }
      ],
      "name": "VoteCast",
      "type": "event"
    },
    {
      "anonymous": false,
      "inputs": [
        {
          "indexed": false,
          "internalType": "uint256",
          "name": "commitment",
          "type": "uint256"
        },
        {
          "indexed": false,
          "internalType": "uint256",
          "name": "newRoot",
          "type": "uint256"
        }
      ],
      "name": "VoterRegistered",
      "type": "event"
    },
    {
      "inputs": [
        {
          "internalType": "uint256",
          "name": "commitment",
          "type": "uint256"
        },
        {
          "internalType": "uint256",
          "name": "computedRoot",
          "type": "uint256"
        }
      ],
      "name": "addVoter",
      "outputs": [],
      "stateMutability": "nonpayable",
      "type": "function"
    },
    {
      "inputs": [],
      "name": "closeElection",
      "outputs": [],
      "stateMutability": "nonpayable",
      "type": "function"
    },
    {
      "inputs": [
        {
          "internalType": "uint256",
          "name": "",
          "type": "uint256"
        }
      ],
      "name": "electionPublicKey",
      "outputs": [
        {
          "internalType": "uint256",
          "name": "",
          "type": "uint256"
        }
      ],
      "stateMutability": "view",
      "type": "function"
    },
    {
      "inputs": [],
      "name": "electionRootSnapshot",
      "outputs": [
        {
          "internalType": "uint256",
          "name": "",
          "type": "uint256"
        }
      ],
      "stateMutability": "view",
      "type": "function"
    },
    {
      "inputs": [
        {
          "internalType": "uint256",
          "name": "",
          "type": "uint256"
        }
      ],
      "name": "encryptedVotes",
      "outputs": [
        {
          "internalType": "uint256",
          "name": "c1_x",
          "type": "uint256"
        },
        {
          "internalType": "uint256",
          "name": "c1_y",
          "type": "uint256"
        },
        {
          "internalType": "uint256",
          "name": "c2_x",
          "type": "uint256"
        },
        {
          "internalType": "uint256",
          "name": "c2_y",
          "type": "uint256"
        }
      ],
      "stateMutability": "view",
      "type": "function"
    },
    {
      "inputs": [],
      "name": "getEncryptedVotesCount",
      "outputs": [
        {
          "internalType": "uint256",
          "name": "",
          "type": "uint256"
        }
      ],
      "stateMutability": "view",
      "type": "function"
    },
    {
      "inputs": [
        {
          "internalType": "uint256",
          "name": "",
          "type": "uint256"
        }
      ],
      "name": "nullifiers",
      "outputs": [
        {
          "internalType": "bool",
          "name": "",
          "type": "bool"
        }
      ],
      "stateMutability": "view",
      "type": "function"
    },
    {
      "inputs": [],
      "name": "owner",
      "outputs": [
        {
          "internalType": "address",
          "name": "",
          "type": "address"
        }
      ],
      "stateMutability": "view",
      "type": "function"
    },
    {
      "inputs": [],
      "name": "startVoting",
      "outputs": [],
      "stateMutability": "nonpayable",
      "type": "function"
    },
    {
      "inputs": [],
      "name": "state",
      "outputs": [
        {
          "internalType": "enum AntigravityBallot.ElectionState",
          "name": "",
          "type": "uint8"
        }
      ],
      "stateMutability": "view",
      "type": "function"
    },
    {
      "inputs": [],
      "name": "verifier",
      "outputs": [
        {
          "internalType": "contract Groth16Verifier",
          "name": "",
          "type": "address"
        }
      ],
      "stateMutability": "view",
      "type": "function"
    },
    {
      "inputs": [
        {
          "internalType": "uint256[2]",
          "name": "a",
          "type": "uint256[2]"
        },
        {
          "internalType": "uint256[2][2]",
          "name": "b",
          "type": "uint256[2][2]"
        },
        {
          "internalType": "uint256[2]",
          "name": "c",
          "type": "uint256[2]"
        },
        {
          "internalType": "uint256",
          "name": "nullifierHash",
          "type": "uint256"
        },
        {
          "internalType": "uint256[2]",
          "name": "c1",
          "type": "uint256[2]"
        },
        {
          "internalType": "uint256[2]",
          "name": "c2",
          "type": "uint256[2]"
        }
      ],
      "name": "verifyAndCast",
      "outputs": [],
      "stateMutability": "nonpayable",
      "type": "function"
    }
  ],
  "bytecode": "0x608060405234801561001057600080fd5b5060405161237e38038061237e83398181016040528101906100329190610314565b33600760006101000a81548173ffffffffffffffffffffffffffffffffffffffff021916908373ffffffffffffffffffffffffffffffffffffffff16021790555060008060006101000a81548160ff0219169083600281111561009857610097610341565b5b02179055508060029060026100ae92919061011e565b506040516100bb9061015e565b604051809103906000f0801580156100d7573d6000803e3d6000fd5b50600660006101000a81548173ffffffffffffffffffffffffffffffffffffffff021916908373ffffffffffffffffffffffffffffffffffffffff16021790555050610370565b826002810192821561014d579160200282015b8281111561014c578251825591602001919060010190610131565b5b50905061015a919061016b565b5090565b6108ab80611ad383390190565b5b8082111561018457600081600090555060010161016c565b5090565b6000604051905090565b600080fd5b600080fd5b6000601f19601f8301169050919050565b7f4e487b7100000000000000000000000000000000000000000000000000000000600052604160045260246000fd5b6101e58261019c565b810181811067ffffffffffffffff82111715610204576102036101ad565b5b80604052505050565b6000610217610188565b905061022382826101dc565b919050565b600067ffffffffffffffff821115610243576102426101ad565b5b602082029050919050565b600080fd5b6000819050919050565b61026681610253565b811461027157600080fd5b50565b6000815190506102838161025d565b92915050565b600061029c61029784610228565b61020d565b905080602084028301858111156102b6576102b561024e565b5b835b818110156102df57806102cb8882610274565b8452602084019350506020810190506102b8565b5050509392505050565b600082601f8301126102fe576102fd610197565b5b600261030b848285610289565b91505092915050565b60006040828403121561032a57610329610192565b5b6000610338848285016102e9565b91505092915050565b7f4e487b7100000000000000000000000000000000000000000000000000000000600052602160045260246000fd5b6117548061037f6000396000f3fe608060405234801561001057600080fd5b50600436106100b45760003560e01c80638da5cb5b116100715780638da5cb5b146101555780639b3e18f114610173578063c19d93fb1461018f578063c521e023146101ad578063d21e82ab146101cb578063fde315bd146101fb576100b4565b80630a120bb0146100b95780631ec6b60a146100d55780632b7ac3f3146100df5780636c6c32d0146100fd578063798052811461010757806386fc644214610125575b600080fd5b6100d360048036038101906100ce9190610c76565b61022e565b005b6100dd610376565b005b6100e76104e1565b6040516100f49190610d35565b60405180910390f35b610105610507565b005b61010f610663565b60405161011c9190610d5f565b60405180910390f35b61013f600480360381019061013a9190610d7a565b610669565b60405161014c9190610d5f565b60405180910390f35b61015d610684565b60405161016a9190610dc8565b60405180910390f35b61018d60048036038101906101889190610fdb565b6106aa565b005b610197610b90565b6040516101a491906110e3565b60405180910390f35b6101b5610ba1565b6040516101c29190610d5f565b60405180910390f35b6101e560048036038101906101e09190610d7a565b610bae565b6040516101f29190611119565b60405180910390f35b61021560048036038101906102109190610d7a565b610bce565b6040516102259493929190611134565b60405180910390f35b600760009054906101000a900473ffffffffffffffffffffffffffffffffffffffff1673ffffffffffffffffffffffffffffffffffffffff163373ffffffffffffffffffffffffffffffffffffffff16146102be576040517f08c379a00000000000000000000000000000000000000000000000000000000081526004016102b5906111d6565b60405180910390fd5b600060028111156102d2576102d161106c565b5b60008054906101000a900460ff1660028111156102f2576102f161106c565b5b14610332576040517f08c379a000000000000000000000000000000000000000000000000000000000815260040161032990611242565b60405180910390fd5b806001819055507f85238313f6b4aa1ea470340fc24bc06d68e734cd21411160c06714eb547571af828260405161036a929190611262565b60405180910390a15050565b600760009054906101000a900473ffffffffffffffffffffffffffffffffffffffff1673ffffffffffffffffffffffffffffffffffffffff163373ffffffffffffffffffffffffffffffffffffffff1614610406576040517f08c379a00000000000000000000000000000000000000000000000000000000081526004016103fd906111d6565b60405180910390fd5b6000600281111561041a5761041961106c565b5b60008054906101000a900460ff16600281111561043a5761043961106c565b5b1461047a576040517f08c379a000000000000000000000000000000000000000000000000000000000815260040161047190611242565b60405180910390fd5b60016000806101000a81548160ff0219169083600281111561049f5761049e61106c565b5b02179055507fff6a30dd22f5e8b783044c7d895a6e8592b55c56f139978d44dc39daf596731f600154436040516104d7929190611262565b60405180910390a1565b600660009054906101000a900473ffffffffffffffffffffffffffffffffffffffff1681565b600760009054906101000a900473ffffffffffffffffffffffffffffffffffffffff1673ffffffffffffffffffffffffffffffffffffffff163373ffffffffffffffffffffffffffffffffffffffff1614610597576040517f08c379a000000000000000000000000000000000000000000000000000000000815260040161058e906111d6565b60405180910390fd5b600160028111156105ab576105aa61106c565b5b60008054906101000a900460ff1660028111156105cb576105ca61106c565b5b1461060b576040517f08c379a0000000000000000000000000000000000000000000000000000000008152600401610602906112d7565b60405180910390fd5b60026000806101000a81548160ff021916908360028111156106305761062f61106c565b5b02179055507fa549b9addfc3693a1863ac5b0b13c42960d78df554c01ea6ac72a7db985df0cf60405160405180910390a1565b60015481565b6002816002811061067957600080fd5b016000915090505481565b600760009054906101000a900473ffffffffffffffffffffffffffffffffffffffff1681565b600160028111156106be576106bd61106c565b5b60008054906101000a900460ff1660028111156106de576106dd61106c565b5b1461071e576040517f08c379a0000000000000000000000000000000000000000000000000000000008152600401610715906112d7565b60405180910390fd5b6004600084815260200190815260200160002060009054906101000a900460ff161561077f576040517f08c379a000000000000000000000000000000000000000000000000000000000815260040161077690611343565b60405180910390fd5b610787610c0e565b6001548160006008811061079e5761079d611363565b5b60200201818152505083816001600881106107bc576107bb611363565b5b60200201818152505060026000600281106107da576107d9611363565b5b0154816002600881106107f0576107ef611363565b5b602002018181525050600260016002811061080e5761080d611363565b5b01548160036008811061082457610823611363565b5b6020020181815250508260006002811061084157610840611363565b5b60200201518160046008811061085a57610859611363565b5b6020020181815250508260016002811061087757610876611363565b5b6020020151816005600881106108905761088f611363565b5b602002018181525050816000600281106108ad576108ac611363565b5b6020020151816006600881106108c6576108c5611363565b5b602002018181525050816001600281106108e3576108e2611363565b5b6020020151816007600881106108fc576108fb611363565b5b602002018181525050600660009054906101000a900473ffffffffffffffffffffffffffffffffffffffff1673ffffffffffffffffffffffffffffffffffffffff1663c9219a7a888888856040518563ffffffff1660e01b815260040161096694939291906115bf565b602060405180830381865afa158015610983573d6000803e3d6000fd5b505050506040513d601f19601f820116820180604052508101906109a79190611632565b6109e6576040517f08c379a00000000000000000000000000000000000000000000000000000000081526004016109dd906116ab565b60405180910390fd5b60016004600086815260200190815260200160002060006101000a81548160ff0219169083151502179055506005604051806080016040528085600060028110610a3357610a32611363565b5b6020020151815260200185600160028110610a5157610a50611363565b5b6020020151815260200184600060028110610a6f57610a6e611363565b5b6020020151815260200184600160028110610a8d57610a8c611363565b5b602002015181525090806001815401808255809150506001900390600052602060002090600402016000909190919091506000820151816000015560208201518160010155604082015181600201556060820151816003015550507f94d41bb6ba59610e9200a16c6cdd6d4794b75c0a120bf7f1581eaf58e8a023b58484600060028110610b1e57610b1d611363565b5b602002015185600160028110610b3757610b36611363565b5b602002015185600060028110610b5057610b4f611363565b5b602002015186600160028110610b6957610b68611363565b5b6020020151604051610b7f9594939291906116cb565b60405180910390a150505050505050565b60008054906101000a900460ff1681565b6000600580549050905090565b60046020528060005260406000206000915054906101000a900460ff1681565b60058181548110610bde57600080fd5b90600052602060002090600402016000915090508060000154908060010154908060020154908060030154905084565b604051806101000160405280600890602082028036833780820191505090505090565b6000604051905090565b600080fd5b6000819050919050565b610c5381610c40565b8114610c5e57600080fd5b50565b600081359050610c7081610c4a565b92915050565b60008060408385031215610c8d57610c8c610c3b565b5b6000610c9b85828601610c61565b9250506020610cac85828601610c61565b9150509250929050565b600073ffffffffffffffffffffffffffffffffffffffff82169050919050565b6000819050919050565b6000610cfb610cf6610cf184610cb6565b610cd6565b610cb6565b9050919050565b6000610d0d82610ce0565b9050919050565b6000610d1f82610d02565b9050919050565b610d2f81610d14565b82525050565b6000602082019050610d4a6000830184610d26565b92915050565b610d5981610c40565b82525050565b6000602082019050610d746000830184610d50565b92915050565b600060208284031215610d9057610d8f610c3b565b5b6000610d9e84828501610c61565b91505092915050565b6000610db282610cb6565b9050919050565b610dc281610da7565b82525050565b6000602082019050610ddd6000830184610db9565b92915050565b600080fd5b6000601f19601f8301169050919050565b7f4e487b7100000000000000000000000000000000000000000000000000000000600052604160045260246000fd5b610e3182610de8565b810181811067ffffffffffffffff82111715610e5057610e4f610df9565b5b80604052505050565b6000610e63610c31565b9050610e6f8282610e28565b919050565b600067ffffffffffffffff821115610e8f57610e8e610df9565b5b602082029050919050565b600080fd5b6000610eb2610ead84610e74565b610e59565b90508060208402830185811115610ecc57610ecb610e9a565b5b835b81811015610ef55780610ee18882610c61565b845260208401935050602081019050610ece565b5050509392505050565b600082601f830112610f1457610f13610de3565b5b6002610f21848285610e9f565b91505092915050565b600067ffffffffffffffff821115610f4557610f44610df9565b5b602082029050919050565b6000610f63610f5e84610f2a565b610e59565b90508060408402830185811115610f7d57610f7c610e9a565b5b835b81811015610fa65780610f928882610eff565b845260208401935050604081019050610f7f565b5050509392505050565b600082601f830112610fc557610fc4610de3565b5b6002610fd2848285610f50565b91505092915050565b6000806000806000806101a08789031215610ff957610ff8610c3b565b5b600061100789828a01610eff565b965050604061101889828a01610fb0565b95505060c061102989828a01610eff565b94505061010061103b89828a01610c61565b93505061012061104d89828a01610eff565b92505061016061105f89828a01610eff565b9150509295509295509295565b7f4e487b7100000000000000000000000000000000000000000000000000000000600052602160045260246000fd5b600381106110ac576110ab61106c565b5b50565b60008190506110bd8261109b565b919050565b60006110cd826110af565b9050919050565b6110dd816110c2565b82525050565b60006020820190506110f860008301846110d4565b92915050565b60008115159050919050565b611113816110fe565b82525050565b600060208201905061112e600083018461110a565b92915050565b60006080820190506111496000830187610d50565b6111566020830186610d50565b6111636040830185610d50565b6111706060830184610d50565b95945050505050565b600082825260208201905092915050565b7f4f6e6c79206f776e65722063616e2063616c6c20746869730000000000000000600082015250565b60006111c0601883611179565b91506111cb8261118a565b602082019050919050565b600060208201905081810360008301526111ef816111b3565b9050919050565b7f526567697374726174696f6e206973206e6f74206f70656e0000000000000000600082015250565b600061122c601883611179565b9150611237826111f6565b602082019050919050565b6000602082019050818103600083015261125b8161121f565b9050919050565b60006040820190506112776000830185610d50565b6112846020830184610d50565b9392505050565b7f566f74696e67206973206e6f74206f70656e0000000000000000000000000000600082015250565b60006112c1601283611179565b91506112cc8261128b565b602082019050919050565b600060208201905081810360008301526112f0816112b4565b9050919050565b7f4964656e746974792068617320616c726561647920766f746564000000000000600082015250565b600061132d601a83611179565b9150611338826112f7565b602082019050919050565b6000602082019050818103600083015261135c81611320565b9050919050565b7f4e487b7100000000000000000000000000000000000000000000000000000000600052603260045260246000fd5b600060029050919050565b600081905092915050565b6000819050919050565b6113bb81610c40565b82525050565b60006113cd83836113b2565b60208301905092915050565b6000602082019050919050565b6113ef81611392565b6113f9818461139d565b9250611404826113a8565b8060005b8381101561143557815161141c87826113c1565b9650611427836113d9565b925050600181019050611408565b505050505050565b600060029050919050565b600081905092915050565b6000819050919050565b600081905092915050565b61147181611392565b61147b818461145d565b9250611486826113a8565b8060005b838110156114b757815161149e87826113c1565b96506114a9836113d9565b92505060018101905061148a565b505050505050565b60006114cb8383611468565b60408301905092915050565b6000602082019050919050565b6114ed8161143d565b6114f78184611448565b925061150282611453565b8060005b8381101561153357815161151a87826114bf565b9650611525836114d7565b925050600181019050611506565b505050505050565b600060089050919050565b600081905092915050565b6000819050919050565b6000602082019050919050565b6115718161153b565b61157b8184611546565b925061158682611551565b8060005b838110156115b757815161159e87826113c1565b96506115a98361155b565b92505060018101905061158a565b505050505050565b6000610200820190506115d560008301876113e6565b6115e260408301866114e4565b6115ef60c08301856113e6565b6115fd610100830184611568565b95945050505050565b61160f816110fe565b811461161a57600080fd5b50565b60008151905061162c81611606565b92915050565b60006020828403121561164857611647610c3b565b5b60006116568482850161161d565b91505092915050565b7f496e76616c6964205a65726f2d4b6e6f776c656467652050726f6f6600000000600082015250565b6000611695601c83611179565b91506116a08261165f565b602082019050919050565b600060208201905081810360008301526116c481611688565b9050919050565b600060a0820190506116e06000830188610d50565b6116ed6020830187610d50565b6116fa6040830186610d50565b6117076060830185610d50565b6117146080830184610d50565b969550505050505056fea2646970667358221220500235a447e19f69c7e97b6a16d53533dee9f12d7a6fb8d9b60f8047c80ad39264736f6c634300081b00336080604052348015600f57600080fd5b5061088c8061001f6000396000f3fe608060405234801561001057600080fd5b506004361061002b5760003560e01c8063c9219a7a14610030575b600080fd5b61004a600480360381019061004591906107b7565b610060565b604051610057919061083b565b60405180910390f35b60006106bd565b7f30644e72e131a029b85045b68181585d2833e84879b9709143e1f593f00000018110610098576000805260206000f35b50565b600060405183815284602082015285604082015260408160608360076107d05a03fa9150816100ce576000805260206000f35b825160408201526020830151606082015260408360808360066107d05a03fa9150816100fe576000805260206000f35b505050505050565b600060808601600087017f0628c1acb42affba00ecaf566a402da81095f5af6e80d5a25a7db1e4c7b31ac581527f27ec8329be8922e6bab2423b1025d578bc33d2943c9729cf7bc27abe8ad9e80f60208201526101a960008801357f2988597b51b945288a066efd7d80604b5d9dcdeb3669d79941f1269c001bdc9e7f23eb87965140a7f131a19d2df59a2c616f6dd45776b8c22e8bd917cbbbae891c8461009b565b6101f960208801357f1e1a278313c6ece240e1ccfb22e0da31caea192b56ae2df869329ebb5251800e7f1b2948c34357ee3e5ca6bf0c428de77149318ec03b250207df3531b5dfbc74f78461009b565b61024960408801357f19ffc0f89385f0f8c7564eae1176763c516105565ac3ca672ae1ffec8c16c2fd7f088df57ad9b2ab13652eb35218b85e8e461feb8a8a844844e8ec060c3c89e8e28461009b565b61029960608801357f216834aade83c94cffecc76cc6f071805f5bb7775a67c6296a343724ab1737027f2194ad4896123e9a2419335ae51dee08ea9f029805fdc57fec47565540b59ebe8461009b565b6102e960808801357f2723e57eff5050b0562e8bcc1bf5540955a98ed5f67039a7b1326e06b25f13277f150fdc13bc96f841bcd672e0fa5ed63f9e490edff94e56886d386e08505834e08461009b565b61033960a08801357f1b057723c461304d22f93fa05e6675c52f449666ea71fd06e9ee2fa0c89c240e7f2c55e88b29f0681adb6157c98339c34187ab14b780c654de158ec5e3ffd3b9b68461009b565b61038960c08801357f236ba32123d12d6aaa78d40d955af7c3b17a2009af32127d21e07d3fe0e00d147f1d3e253f35c76381f0f6b5c3ef1f0cce51d3c90fd90bb2a28707fd90222b77588461009b565b6103d960e08801357f1b51ce3e4acd7b3e7256c2546a7890a37abae07b732322655932680806780f357f1e0d3b104a5ba15a54d495b952d9025a42619833cf625d2ffa289e9780ce49638461009b565b833582527f30644e72e131a029b85045b68181585d97816a916871ca8d3c208c16d87cfd4760208501357f30644e72e131a029b85045b68181585d97816a916871ca8d3c208c16d87cfd4703066020830152843560408301526020850135606083015260408501356080830152606085013560a08301527f2a27e58cd7c98cb7d495e427200600997054ad256aff31cc7e84b5fb7d266d8260c08301527f1cbb48c1f1a8c083e1b14b59dadaf9d26c729021304706aeb5ca377246791fec60e08301527f08e095afe022f068436e96adaedb3d30568f6f8958d48163ec8b7335224bd7a06101008301527f1e38625d639f503c00d451fd05e0445547059eaf4014c8ab6f4a74db42a460f86101208301527f1a5903a0eb275bc14e69a23fc53dc40290e6f6bbcf746b7efabac869fea1916b6101408301527f2f094998158bfeea1e8f92be2ba6ff27edcc7ba8eff94cccfdd902c55d54b708610160830152600088015161018083015260206000018801516101a08301527f198e9393920d483a7260bfb731fb5d25f1aa493335a9e71297e485b7aef312c26101c08301527f1800deef121f1e76426a00665e5c4479674322d4f75edadd46debd5cd992f6ed6101e08301527f090689d0585ff075ec9e99ad690c3395bc4b313370b38ef355acdadcd122975b6102008301527f12c85ea5db8c6deb4aab71808dcb408fe3d1e7690c43d37b4ce6cc0166fa7daa610220830152853561024083015260208601356102608301527f2a2fcf2621f5c66184a154fc86a4a68a075c54d94d6c2cf59c411d0e23fc29096102808301527f13de24f7cc2625439db43e6d258e7febb897f3195a6b80eecc75e5d83907c3ed6102a08301527f27d26717ca8a7f553c464006b1e9eafa2e4c0474116a44854c0a6c311c6ff74f6102c08301527f01af963cdff434547e70c9d9d1d702646bf4b160f82c4ec6e28b4d1e1a05c6ef6102e08301526020826103008460086107d05a03fa82518116935050505095945050505050565b60405161038081016040526106d56000840135610067565b6106e26020840135610067565b6106ef6040840135610067565b6106fc6060840135610067565b6107096080840135610067565b61071660a0840135610067565b61072360c0840135610067565b61073060e0840135610067565b61073d818486888a610106565b8060005260206000f35b600080fd5b600080fd5b60008190508260206002028201111561076d5761076c61074c565b5b92915050565b60008190508260406002028201111561078f5761078e61074c565b5b92915050565b6000819050826020600802820111156107b1576107b061074c565b5b92915050565b60008060008061020085870312156107d2576107d1610747565b5b60006107e087828801610751565b94505060406107f187828801610773565b93505060c061080287828801610751565b92505061010061081487828801610795565b91505092959194509250565b60008115159050919050565b61083581610820565b82525050565b6000602082019050610850600083018461082c565b9291505056fea26469706673582212200697f952534d2737e1b862205a2831e1cd71a72091f4fc6e16a40f8e714b8aed64736f6c634300081b0033",
  "linkReferences": {},
  "deployedLinkReferences": {}
}