{
  "_format": "hh-sol-artifact-1",
  "contractName": "Groth16Verifier",
  "sourceName": "contracts/Verifier.sol",
  "abi": [
    {
      "inputs": [
        {
          "internalType": "uint256[2]",
          "name": "_pA",
          "type": "uint256[2]"
        },
        {
          "internalType": "uint256[2][2]",
          "name": "_pB",
          "type": "uint256[2][2]"
        },
        {
          "internalType": "uint256[2]",
          "name": "_pC",
          "type": "uint256[2]"
        },
        {
          "internalType": "uint256[8]",
          "name": "_pubSignals",
          "type": "uint256[8]"
        }
      ],
      "name": "verifyProof",
      "outputs": [
        {
          "internalType": "bool",
          "name": "",
          "type": "bool"
        }
      ],
      "stateMutability": "view",
      "type": "function"
    }
  ],
  "bytecode": "0x6080604052348015600f57600080fd5b5061088c8061001f6000396000f3fe608060405234801561001057600080fd5b506004361061002b5760003560e01c8063c9219a7a14610030575b600080fd5b61004a600480360381019061004591906107b7565b610060565b604051610057919061083b565b60405180910390f35b60006106bd565b7f30644e72e131a029b85045b68181585d2833e84879b9709143e1f593f00000018110610098576000805260206000f35b50565b600060405183815284602082015285604082015260408160608360076107d05a03fa9150816100ce576000805260206000f35b825160408201526020830151606082015260408360808360066107d05a03fa9150816100fe576000805260206000f35b505050505050565b600060808601600087017f0628c1acb42affba00ecaf566a402da81095f5af6e80d5a25a7db1e4c7b31ac581527f27ec8329be8922e6bab2423b1025d578bc33d2943c9729cf7bc27abe8ad9e80f60208201526101a960008801357f2988597b51b945288a066efd7d80604b5d9dcdeb3669d79941f1269c001bdc9e7f23eb87965140a7f131a19d2df59a2c616f6dd45776b8c22e8bd917cbbbae891c8461009b565b6101f960208801357f1e1a278313c6ece240e1ccfb22e0da31caea192b56ae2df869329ebb5251800e7f1b2948c34357ee3e5ca6bf0c428de77149318ec03b250207df3531b5dfbc74f78461009b565b61024960408801357f19ffc0f89385f0f8c7564eae1176763c516105565ac3ca672ae1ffec8c16c2fd7f088df57ad9b2ab13652eb35218b85e8e461feb8a8a844844e8ec060c3c89e8e28461009b565b61029960608801357f216834aade83c94cffecc76cc6f071805f5bb7775a67c6296a343724ab1737027f2194ad4896123e9a2419335ae51dee08ea9f029805fdc57fec47565540b59ebe8461009b565b6102e960808801357f2723e57eff5050b0562e8bcc1bf5540955a98ed5f67039a7b1326e06b25f13277f150fdc13bc96f841bcd672e0fa5ed63f9e490edff94e56886d386e08505834e08461009b565b61033960a08801357f1b057723c461304d22f93fa05e6675c52f449666ea71fd06e9ee2fa0c89c240e7f2c55e88b29f0681adb6157c98339c34187ab14b780c654de158ec5e3ffd3b9b68461009b565b61038960c08801357f236ba32123d12d6aaa78d40d955af7c3b17a2009af32127d21e07d3fe0e00d147f1d3e253f35c76381f0f6b5c3ef1f0cce51d3c90fd90bb2a28707fd90222b77588461009b565b6103d960e08801357f1b51ce3e4acd7b3e7256c2546a7890a37abae07b732322655932680806780f357f1e0d3b104a5ba15a54d495b952d9025a42619833cf625d2ffa289e9780ce49638461009b565b833582527f30644e72e131a029b85045b68181585d97816a916871ca8d3c208c16d87cfd4760208501357f30644e72e131a029b85045b68181585d97816a916871ca8d3c208c16d87cfd4703066020830152843560408301526020850135606083015260408501356080830152606085013560a08301527f2a27e58cd7c98cb7d495e427200600997054ad256aff31cc7e84b5fb7d266d8260c08301527f1cbb48c1f1a8c083e1b14b59dadaf9d26c729021304706aeb5ca377246791fec60e08301527f08e095afe022f068436e96adaedb3d30568f6f8958d48163ec8b7335224bd7a06101008301527f1e38625d639f503c00d451fd05e0445547059eaf4014c8ab6f4a74db42a460f86101208301527f1a5903a0eb275bc14e69a23fc53dc40290e6f6bbcf746b7efabac869fea1916b6101408301527f2f094998158bfeea1e8f92be2ba6ff27edcc7ba8eff94cccfdd902c55d54b708610160830152600088015161018083015260206000018801516101a08301527f198e9393920d483a7260bfb731fb5d25f1aa493335a9e71297e485b7aef312c26101c08301527f1800deef121f1e76426a00665e5c4479674322d4f75edadd46debd5cd992f6ed6101e08301527f090689d0585ff075ec9e99ad690c3395bc4b313370b38ef355acdadcd122975b6102008301527f12c85ea5db8c6deb4aab71808dcb408fe3d1e7690c43d37b4ce6cc0166fa7daa610220830152853561024083015260208601356102608301527f2a2fcf2621f5c66184a154fc86a4a68a075c54d94d6c2cf59c411d0e23fc29096102808301527f13de24f7cc2625439db43e6d258e7febb897f3195a6b80eecc75e5d83907c3ed6102a08301527f27d26717ca8a7f553c464006b1e9eafa2e4c0474116a44854c0a6c311c6ff74f6102c08301527f01af963cdff434547e70c9d9d1d702646bf4b160f82c4ec6e28b4d1e1a05c6ef6102e08301526020826103008460086107d05a03fa82518116935050505095945050505050565b60405161038081016040526106d56000840135610067565b6106e26020840135610067565b6106ef6040840135610067565b6106fc6060840135610067565b6107096080840135610067565b61071660a0840135610067565b61072360c0840135610067565b61073060e0840135610067565b61073d818486888a610106565b8060005260206000f35b600080fd5b600080fd5b60008190508260206002028201111561076d5761076c61074c565b5b92915050565b60008190508260406002028201111561078f5761078e61074c565b5b92915050565b6000819050826020600802820111156107b1576107b061074c565b5b92915050565b60008060008061020085870312156107d2576107d1610747565b5b60006107e087828801610751565b94505060406107f187828801610773565b93505060c061080287828801610751565b92505061010061081487828801610795565b91505092959194509250565b60008115159050919050565b61083581610820565b82525050565b6000602082019050610850600083018461082c565b9291505056fea26469706673582212200697f952534d2737e1b862205a2831e1cd71a72091f4fc6e16a40f8e714b8aed64736f6c634300081b0033",
  "linkReferences": {},
  "deployedLinkReferences": {}
}